Archive member included to satisfy reference by file (symbol)

d:/dev/avr/tools/avr8-gnu-toolchain-3.6.2.1759-win32.any.x86/avr8-gnu-toolchain-win32_x86/bin/../lib/gcc/avr/5.4.0/avr5\libgcc.a(_mulsi3.o)
                              avr\lib\BME280_driver\bme280.o (__mulsi3)
d:/dev/avr/tools/avr8-gnu-toolchain-3.6.2.1759-win32.any.x86/avr8-gnu-toolchain-win32_x86/bin/../lib/gcc/avr/5.4.0/avr5\libgcc.a(_udivmodhi4.o)
                              avr\lib\BME280_driver\bme280.o (__udivmodhi4)
d:/dev/avr/tools/avr8-gnu-toolchain-3.6.2.1759-win32.any.x86/avr8-gnu-toolchain-win32_x86/bin/../lib/gcc/avr/5.4.0/avr5\libgcc.a(_udivmodsi4.o)
                              avr\lib\BME280_driver\bme280.o (__udivmodsi4)
d:/dev/avr/tools/avr8-gnu-toolchain-3.6.2.1759-win32.any.x86/avr8-gnu-toolchain-win32_x86/bin/../lib/gcc/avr/5.4.0/avr5\libgcc.a(_divmodsi4.o)
                              avr\lib\BME280_driver\bme280.o (__divmodsi4)
d:/dev/avr/tools/avr8-gnu-toolchain-3.6.2.1759-win32.any.x86/avr8-gnu-toolchain-win32_x86/bin/../lib/gcc/avr/5.4.0/avr5\libgcc.a(_negsi2.o)
                              d:/dev/avr/tools/avr8-gnu-toolchain-3.6.2.1759-win32.any.x86/avr8-gnu-toolchain-win32_x86/bin/../lib/gcc/avr/5.4.0/avr5\libgcc.a(_divmodsi4.o) (__negsi2)
d:/dev/avr/tools/avr8-gnu-toolchain-3.6.2.1759-win32.any.x86/avr8-gnu-toolchain-win32_x86/bin/../lib/gcc/avr/5.4.0/avr5\libgcc.a(_exit.o)
                              d:/dev/avr/tools/avr8-gnu-toolchain-3.6.2.1759-win32.any.x86/avr8-gnu-toolchain-win32_x86/bin/../lib/gcc/avr/5.4.0/../../../../avr/lib/avr5/crtatmega168pa.o (exit)
d:/dev/avr/tools/avr8-gnu-toolchain-3.6.2.1759-win32.any.x86/avr8-gnu-toolchain-win32_x86/bin/../lib/gcc/avr/5.4.0/avr5\libgcc.a(_copy_data.o)
                              avr\lib\BME280_driver\bme280.o (__do_copy_data)
d:/dev/avr/tools/avr8-gnu-toolchain-3.6.2.1759-win32.any.x86/avr8-gnu-toolchain-win32_x86/bin/../lib/gcc/avr/5.4.0/avr5\libgcc.a(_clear_bss.o)
                              avr\lib\vusb-20121206\usbdrv\usbdrv.o (__do_clear_bss)
d:/dev/avr/tools/avr8-gnu-toolchain-3.6.2.1759-win32.any.x86/avr8-gnu-toolchain-win32_x86/bin/../lib/gcc/avr/5.4.0/avr5\libgcc.a(_umulhisi3.o)
                              avr\src\main.o (__umulhisi3)
d:/dev/avr/tools/avr8-gnu-toolchain-3.6.2.1759-win32.any.x86/avr8-gnu-toolchain-win32_x86/bin/../lib/gcc/avr/5.4.0/avr5\libgcc.a(_muluhisi3.o)
                              avr\lib\BME280_driver\bme280.o (__muluhisi3)
d:/dev/avr/tools/avr8-gnu-toolchain-3.6.2.1759-win32.any.x86/avr8-gnu-toolchain-win32_x86/bin/../lib/gcc/avr/5.4.0/avr5\libgcc.a(_mulshisi3.o)
                              avr\lib\BME280_driver\bme280.o (__mulshisi3)
d:/dev/avr/tools/avr8-gnu-toolchain-3.6.2.1759-win32.any.x86/avr8-gnu-toolchain-win32_x86/bin/../lib/gcc/avr/5.4.0/../../../../avr/lib/avr5\libc.a(memcpy_P.o)
                              avr\src\main.o (memcpy_P)
d:/dev/avr/tools/avr8-gnu-toolchain-3.6.2.1759-win32.any.x86/avr8-gnu-toolchain-win32_x86/bin/../lib/gcc/avr/5.4.0/../../../../avr/lib/avr5\libc.a(strcpy_P.o)
                              avr\src\assertHandler.o (strcpy_P)
d:/dev/avr/tools/avr8-gnu-toolchain-3.6.2.1759-win32.any.x86/avr8-gnu-toolchain-win32_x86/bin/../lib/gcc/avr/5.4.0/../../../../avr/lib/avr5\libc.a(strlen_P.o)
                              avr\src\assertHandler.o (__strlen_P)
d:/dev/avr/tools/avr8-gnu-toolchain-3.6.2.1759-win32.any.x86/avr8-gnu-toolchain-win32_x86/bin/../lib/gcc/avr/5.4.0/../../../../avr/lib/avr5\libc.a(memcpy.o)
                              avr\src\Usb\Hid\ControlEp.o (memcpy)
d:/dev/avr/tools/avr8-gnu-toolchain-3.6.2.1759-win32.any.x86/avr8-gnu-toolchain-win32_x86/bin/../lib/gcc/avr/5.4.0/../../../../avr/lib/avr5\libatmega168pa.a(eerd_byte.o)
                              avr\src\Sensors.o (eeprom_read_byte)
d:/dev/avr/tools/avr8-gnu-toolchain-3.6.2.1759-win32.any.x86/avr8-gnu-toolchain-win32_x86/bin/../lib/gcc/avr/5.4.0/../../../../avr/lib/avr5\libatmega168pa.a(eewr_byte.o)
                              avr\src\Sensors.o (eeprom_write_byte)

Allocating common symbols
Common symbol       size              file

usbTxBuf            0xb               avr\lib\vusb-20121206\usbdrv\usbdrv.o
usbTxStatus1        0xc               avr\lib\vusb-20121206\usbdrv\usbdrv.o
usbDeviceAddr       0x1               avr\lib\vusb-20121206\usbdrv\usbdrv.o
usbRxToken          0x1               avr\lib\vusb-20121206\usbdrv\usbdrv.o
usbInputBufOffset   0x1               avr\lib\vusb-20121206\usbdrv\usbdrv.o
usbMsgPtr           0x2               avr\lib\vusb-20121206\usbdrv\usbdrv.o
usbRxLen            0x1               avr\lib\vusb-20121206\usbdrv\usbdrv.o
usbNewDeviceAddr    0x1               avr\lib\vusb-20121206\usbdrv\usbdrv.o
usbCurrentTok       0x1               avr\lib\vusb-20121206\usbdrv\usbdrv.o
usbConfiguration    0x1               avr\lib\vusb-20121206\usbdrv\usbdrv.o
usbRxBuf            0x16              avr\lib\vusb-20121206\usbdrv\usbdrv.o

Discarded input sections

 .data          0x00000000        0x0 d:/dev/avr/tools/avr8-gnu-toolchain-3.6.2.1759-win32.any.x86/avr8-gnu-toolchain-win32_x86/bin/../lib/gcc/avr/5.4.0/../../../../avr/lib/avr5/crtatmega168pa.o
 .bss           0x00000000        0x0 d:/dev/avr/tools/avr8-gnu-toolchain-3.6.2.1759-win32.any.x86/avr8-gnu-toolchain-win32_x86/bin/../lib/gcc/avr/5.4.0/../../../../avr/lib/avr5/crtatmega168pa.o
 .group         0x00000000        0x8 avr\lib\BME280_driver\bme280.o
 .group         0x00000000        0x8 avr\lib\BME280_driver\bme280.o
 .group         0x00000000        0x8 avr\lib\BME280_driver\bme280.o
 .group         0x00000000        0x8 avr\lib\BME280_driver\bme280.o
 .text          0x00000000        0x0 avr\lib\BME280_driver\bme280.o
 .data          0x00000000        0x0 avr\lib\BME280_driver\bme280.o
 .bss           0x00000000        0x0 avr\lib\BME280_driver\bme280.o
 .text.null_ptr_check
                0x00000000       0x2c avr\lib\BME280_driver\bme280.o
 .text.bme280_get_regs
                0x00000000       0x4a avr\lib\BME280_driver\bme280.o
 .text.bme280_set_regs
                0x00000000      0x104 avr\lib\BME280_driver\bme280.o
 .text.set_osr_humidity_settings.isra.6
                0x00000000       0x6a avr\lib\BME280_driver\bme280.o
 .text.set_osr_press_temp_settings
Memory Configuration

Name             Origin             Length             Attributes
text             0x00000000         0x00020000         xr
data             0x00800060         0x0000ffa0         rw !x
eeprom           0x00810000         0x00010000         rw !x
fuse             0x00820000         0x00000003         rw !x
lock             0x00830000         0x00000400         rw !x
signature        0x00840000         0x00000400         rw !x
user_signatures  0x00850000         0x00000400         rw !x
*default*        0x00000000         0xffffffff

Linker script and memory map

Address of section .data set to 0x800100
LOAD d:/dev/avr/tools/avr8-gnu-toolchain-3.6.2.1759-win32.any.x86/avr8-gnu-toolchain-win32_x86/bin/../lib/gcc/avr/5.4.0/../../../../avr/lib/avr5/crtatmega168pa.o
LOAD avr\lib\BME280_driver\bme280.o
LOAD avr\lib\stackmon.o
LOAD avr\lib\vusb-20121206\usbdrv\oddebug.o
LOAD avr\lib\vusb-20121206\usbdrv\usbdrv.o
LOAD avr\lib\vusb-20121206\usbdrv\usbdrvasm.o
LOAD avr\src\AnalogSensors.o
LOAD avr\src\Bme280.o
LOAD avr\src\Display.o
LOAD avr\src\Hpma115s0\Fsm.o
LOAD avr\src\Mcu.o
LOAD avr\src\PushButton.o
LOAD avr\src\Rtc.o
LOAD avr\src\Sensors.o
LOAD avr\src\Sht2x.o
LOAD avr\src\Tc\SystemTimer.o
LOAD avr\src\Usart0.o
LOAD avr\src\Usb\Hid\ControlEp.o
LOAD avr\src\Usb\descriptors.o
LOAD avr\src\abi.o
LOAD avr\src\assertHandler.o
LOAD avr\src\badIsrHandler.o
LOAD avr\src\fuses.o
LOAD avr\src\lcd-hd44780.o
LOAD avr\src\main.o
LOAD d:/dev/avr/tools/avr8-gnu-toolchain-3.6.2.1759-win32.any.x86/avr8-gnu-toolchain-win32_x86/bin/../lib/gcc/avr/5.4.0/avr5\libgcc.a
LOAD d:/dev/avr/tools/avr8-gnu-toolchain-3.6.2.1759-win32.any.x86/avr8-gnu-toolchain-win32_x86/bin/../lib/gcc/avr/5.4.0/../../../../avr/lib/avr5\libm.a
START GROUP
LOAD d:/dev/avr/tools/avr8-gnu-toolchain-3.6.2.1759-win32.any.x86/avr8-gnu-toolchain-win32_x86/bin/../lib/gcc/avr/5.4.0/avr5\libgcc.a
LOAD d:/dev/avr/tools/avr8-gnu-toolchain-3.6.2.1759-win32.any.x86/avr8-gnu-toolchain-win32_x86/bin/../lib/gcc/avr/5.4.0/../../../../avr/lib/avr5\libm.a
LOAD d:/dev/avr/tools/avr8-gnu-toolchain-3.6.2.1759-win32.any.x86/avr8-gnu-toolchain-win32_x86/bin/../lib/gcc/avr/5.4.0/../../../../avr/lib/avr5\libc.a
LOAD d:/dev/avr/tools/avr8-gnu-toolchain-3.6.2.1759-win32.any.x86/avr8-gnu-toolchain-win32_x86/bin/../lib/gcc/avr/5.4.0/../../../../avr/lib/avr5\libatmega168pa.a
END GROUP
                0x00020000                __TEXT_REGION_LENGTH__ = DEFINED (__TEXT_REGION_LENGTH__)?__TEXT_REGION_LENGTH__:0x20000
                0x0000ffa0                __DATA_REGION_LENGTH__ = DEFINED (__DATA_REGION_LENGTH__)?__DATA_REGION_LENGTH__:0xffa0
                0x00010000                __EEPROM_REGION_LENGTH__ = DEFINED (__EEPROM_REGION_LENGTH__)?__EEPROM_REGION_LENGTH__:0x10000
                [0x00000003]                __FUSE_REGION_LENGTH__ = DEFINED (__FUSE_REGION_LENGTH__)?__FUSE_REGION_LENGTH__:0x400
                0x00000400                __LOCK_REGION_LENGTH__ = DEFINED (__LOCK_REGION_LENGTH__)?__LOCK_REGION_LENGTH__:0x400
                0x00000400                __SIGNATURE_REGION_LENGTH__ = DEFINED (__SIGNATURE_REGION_LENGTH__)?__SIGNATURE_REGION_LENGTH__:0x400
                0x00000400                __USER_SIGNATURE_REGION_LENGTH__ = DEFINED (__USER_SIGNATURE_REGION_LENGTH__)?__USER_SIGNATURE_REGION_LENGTH__:0x400

.hash
 *(.hash)

.dynsym
 *(.dynsym)

.dynstr
 *(.dynstr)

.gnu.version
 *(.gnu.version)

.gnu.version_d
 *(.gnu.version_d)

.gnu.version_r
 *(.gnu.version_r)

.rel.init
 *(.rel.init)

.rela.init
 *(.rela.init)

.rel.text
 *(.rel.text)
 *(.rel.text.*)
 *(.rel.gnu.linkonce.t*)

.rela.text
 *(.rela.text)
 *(.rela.text.*)
 *(.rela.gnu.linkonce.t*)

.rel.fini
 *(.rel.fini)

.rela.fini
 *(.rela.fini)

.rel.rodata
 *(.rel.rodata)
 *(.rel.rodata.*)
 *(.rel.gnu.linkonce.r*)

.rela.rodata
 *(.rela.rodata)
 *(.rela.rodata.*)
 *(.rela.gnu.linkonce.r*)

.rel.data
 *(.rel.data)
 *(.rel.data.*)
 *(.rel.gnu.linkonce.d*)

.rela.data
 *(.rela.data)
 *(.rela.data.*)
 *(.rela.gnu.linkonce.d*)

.rel.ctors
 *(.rel.ctors)

.rela.ctors
 *(.rela.ctors)

.rel.dtors
 *(.rel.dtors)

.rela.dtors
 *(.rela.dtors)

.rel.got
 *(.rel.got)

.rela.got
 *(.rela.got)

.rel.bss
 *(.rel.bss)

.rela.bss
 *(.rela.bss)

.rel.plt
 *(.rel.plt)

.rela.plt
 *(.rela.plt)

.text           0x00000000     0x3d84
 *(.vectors)
 .vectors       0x00000000       0x68 d:/dev/avr/tools/avr8-gnu-toolchain-3.6.2.1759-win32.any.x86/avr8-gnu-toolchain-win32_x86/bin/../lib/gcc/avr/5.4.0/../../../../avr/lib/avr5/crtatmega168pa.o
                0x00000000                __vectors
 *(.vectors)
 *(.progmem.gcc*)
                0x00000068                . = ALIGN (0x2)
                0x00000068                __trampolines_start = .
 *(.trampolines)
 .trampolines   0x00000068        0x0 linker stubs
 *(.trampolines*)
                0x00000068                __trampolines_end = .
 *libprintf_flt.a:*(.progmem.data)
 *libc.a:*(.progmem.data)
 *(.progmem*)
 .progmem.data.usbDescriptorDevice
                0x00000068       0x12 avr\lib\vusb-20121206\usbdrv\usbdrv.o
                0x00000068                usbDescriptorDevice
 .progmem.data.usbDescriptorStringDevice
                0x0000007a       0x38 avr\lib\vusb-20121206\usbdrv\usbdrv.o
                0x0000007a                usbDescriptorStringDevice
 .progmem.data.usbDescriptorStringVendor
                0x000000b2       0x36 avr\lib\vusb-20121206\usbdrv\usbdrv.o
                0x000000b2                usbDescriptorStringVendor
 .progmem.data.usbDescriptorString0
                0x000000e8        0x4 avr\lib\vusb-20121206\usbdrv\usbdrv.o
                0x000000e8                usbDescriptorString0
 .progmem.data._ZN7Display19CGRAM_PATTERN_MICROE
                0x000000ec        0x8 avr\src\Display.o
                0x000000ec                _ZN7Display19CGRAM_PATTERN_MICROE
 .progmem.data._ZN7Display29CGRAM_PATTERN_DEGREES_CELSIUSE
                0x000000f4        0x8 avr\src\Display.o
                0x000000f4                _ZN7Display29CGRAM_PATTERN_DEGREES_CELSIUSE
 .progmem.data._ZZ10__vector_6E3__c
                0x000000fc       0x1b avr\src\Mcu.o
 .progmem.data._ZZN7Display27ForcePm2p5SensorPowerOnInfoEbE3__c_2
                0x00000117        0x4 avr\src\Sensors.o
                0x00000117                _ZZN7Display27ForcePm2p5SensorPowerOnInfoEbE3__c_2
 .progmem.data._ZZN7Display27ForcePm2p5SensorPowerOnInfoEbE3__c_1
                0x0000011b        0x3 avr\src\Sensors.o
                0x0000011b                _ZZN7Display27ForcePm2p5SensorPowerOnInfoEbE3__c_1
 .progmem.data._ZZN7Display27ForcePm2p5SensorPowerOnInfoEbE3__c_0
                0x0000011e        0xb avr\src\Sensors.o
                0x0000011e                _ZZN7Display27ForcePm2p5SensorPowerOnInfoEbE3__c_0
 .progmem.data._ZZN7Display27ForcePm2p5SensorPowerOnInfoEbE3__c
                0x00000129       0x10 avr\src\Sensors.o
                0x00000129                _ZZN7Display27ForcePm2p5SensorPowerOnInfoEbE3__c
 .progmem.data.f_CfgIfEpDescriptors
                0x00000139       0x22 avr\src\Usb\descriptors.o
 .progmem.data.f_HidReportDescriptor
                0x0000015b      0x4c4 avr\src\Usb\descriptors.o
 .progmem.data._ZZ21g_HandleAssertFailureE3__c
                0x0000061f       0x1b avr\src\assertHandler.o
 .progmem.data._ZN3Usb3Hid6Sensor5Pm2p5L17CUSTOM_PROPERTIESE
                0x0000063a        0x6 avr\src\main.o
 .progmem.data._ZN3Usb3Hid6Sensor16RelativeHumidityL17CUSTOM_PROPERTIESE
                0x00000640        0x6 avr\src\main.o
 .progmem.data._ZN3Usb3Hid6Sensor11TemperatureL17CUSTOM_PROPERTIESE
                0x00000646        0x6 avr\src\main.o
 .progmem.data._ZN3Usb3Hid6Sensor19AtmosphericPressureL17CUSTOM_PROPERTIESE
                0x0000064c        0x6 avr\src\main.o
 .progmem.data._ZZN7Display6UpdateERKN3Bcd4TimeERKNS0_4DateEbRKN6Bme28019AtmosphericPressureERKNS7_11TemperatureERKNS7_16RelativeHumidityERKN12Hpma115s0Fsm7Machine5Pm2p5EE3__c_3
                0x00000652        0x4 avr\src\main.o
                0x00000652                _ZZN7Display6UpdateERKN3Bcd4TimeERKNS0_4DateEbRKN6Bme28019AtmosphericPressureERKNS7_11TemperatureERKNS7_16RelativeHumidityERKN12Hpma115s0Fsm7Machine5Pm2p5EE3__c_3
 .progmem.data._ZZN7Display6UpdateERKN3Bcd4TimeERKNS0_4DateEbRKN6Bme28019AtmosphericPressureERKNS7_11TemperatureERKNS7_16RelativeHumidityERKN12Hpma115s0Fsm7Machine5Pm2p5EE3__c_0
                0x00000656        0x5 avr\src\main.o
                0x00000656                _ZZN7Display6UpdateERKN3Bcd4TimeERKNS0_4DateEbRKN6Bme28019AtmosphericPressureERKNS7_11TemperatureERKNS7_16RelativeHumidityERKN12Hpma115s0Fsm7Machine5Pm2p5EE3__c_0
                0x0000065c                . = ALIGN (0x2)
 *fill*         0x0000065b        0x1 
 *(.jumptables)
 *(.jumptables*)
 *(.lowtext)
 *(.lowtext*)
                0x0000065c                __ctors_start = .
 *(.ctors)
                0x0000065c                __ctors_end = .
                0x0000065c                __dtors_start = .
 *(.dtors)
                0x0000065c                __dtors_end = .
 SORT(*)(.ctors)
 SORT(*)(.dtors)
 *(.init0)
 .init0         0x0000065c        0x0 d:/dev/avr/tools/avr8-gnu-toolchain-3.6.2.1759-win32.any.x86/avr8-gnu-toolchain-win32_x86/bin/../lib/gcc/avr/5.4.0/../../../../avr/lib/avr5/crtatmega168pa.o
                0x0000065c                __init
 *(.init0)
 *(.init1)
 .init1         0x0000065c       0x14 avr\lib\stackmon.o
                0x0000065c                StackPaint
 *(.init1)
 *(.init2)
 .init2         0x00000670        0xc d:/dev/avr/tools/avr8-gnu-toolchain-3.6.2.1759-win32.any.x86/avr8-gnu-toolchain-win32_x86/bin/../lib/gcc/avr/5.4.0/../../../../avr/lib/avr5/crtatmega168pa.o
 *(.init2)
 *(.init3)
 .init3         0x0000067c       0x1c avr\src\Mcu.o
                0x0000067c                _ZN3Mcu25DisableWatchdogAfterResetEv
 *(.init3)
 *(.init4)
 .init4         0x00000698       0x16 d:/dev/avr/tools/avr8-gnu-toolchain-3.6.2.1759-win32.any.x86/avr8-gnu-toolchain-win32_x86/bin/../lib/gcc/avr/5.4.0/avr5\libgcc.a(_copy_data.o)
                0x00000698                __do_copy_data
 .init4         0x000006ae       0x10 d:/dev/avr/tools/avr8-gnu-toolchain-3.6.2.1759-win32.any.x86/avr8-gnu-toolchain-win32_x86/bin/../lib/gcc/avr/5.4.0/avr5\libgcc.a(_clear_bss.o)
                0x000006ae                __do_clear_bss
 *(.init4)
 *(.init5)
 *(.init5)
 *(.init6)
 *(.init6)
 *(.init7)
 *(.init7)
 *(.init8)
 *(.init8)
 *(.init9)
 .init9         0x000006be        0x8 d:/dev/avr/tools/avr8-gnu-toolchain-3.6.2.1759-win32.any.x86/avr8-gnu-toolchain-win32_x86/bin/../lib/gcc/avr/5.4.0/../../../../avr/lib/avr5/crtatmega168pa.o
 *(.init9)
 *(.text)
 .text          0x000006c6        0x4 d:/dev/avr/tools/avr8-gnu-toolchain-3.6.2.1759-win32.any.x86/avr8-gnu-toolchain-win32_x86/bin/../lib/gcc/avr/5.4.0/../../../../avr/lib/avr5/crtatmega168pa.o
                0x000006c6                __vector_22
                0x000006c6                __vector_24
                0x000006c6                __vector_12
                0x000006c6                __bad_interrupt
                0x000006c6                __vector_3
                0x000006c6                __vector_23
                0x000006c6                __vector_25
                0x000006c6                __vector_11
                0x000006c6                __vector_13
                0x000006c6                __vector_17
                0x000006c6                __vector_19
                0x000006c6                __vector_7
                0x000006c6                __vector_5
                0x000006c6                __vector_4
                0x000006c6                __vector_9
                0x000006c6                __vector_2
                0x000006c6                __vector_21
                0x000006c6                __vector_15
                0x000006c6                __vector_8
                0x000006c6                __vector_14
                0x000006c6                __vector_10
                0x000006c6                __vector_16
                0x000006c6                __vector_18
                0x000006c6                __vector_20
 .text          0x000006ca      0x294 avr\lib\vusb-20121206\usbdrv\usbdrvasm.o
                0x000006ca                usbCrc16
                0x00000714                usbCrc16Append
                0x0000071c                __vector_1
                0x0000095e                . = ALIGN (0x2)
 *(.text.*)
 .text.bme280_parse_sensor_data
                0x0000095e       0xc2 avr\lib\BME280_driver\bme280.o
                0x0000095e                bme280_parse_sensor_data
 .text.bme280_compensate_data
                0x00000a20      0x630 avr\lib\BME280_driver\bme280.o
                0x00000a20                bme280_compensate_data
 .text.bme280_parse_temp_press_calib_data
                0x00001050       0x9a avr\lib\BME280_driver\bme280.o
                0x00001050                bme280_parse_temp_press_calib_data
 .text.bme280_parse_humidity_calib_data
                0x000010ea       0x52 avr\lib\BME280_driver\bme280.o
                0x000010ea                bme280_parse_humidity_calib_data
 .text.StackCount
                0x0000113c       0x20 avr\lib\stackmon.o
                0x0000113c                StackCount
 .text.usbSetInterrupt
                0x0000115c       0x44 avr\lib\vusb-20121206\usbdrv\usbdrv.o
                0x0000115c                usbSetInterrupt
 .text.usbPoll  0x000011a0      0x27c avr\lib\vusb-20121206\usbdrv\usbdrv.o
                0x000011a0                usbPoll
 .text.usbInit  0x0000141c       0x1a avr\lib\vusb-20121206\usbdrv\usbdrv.o
                0x0000141c                usbInit
 .text._ZN12Hpma115s0Fsm19SensorDisabledState6OnPollEv
                0x00001436       0x22 avr\src\Hpma115s0\Fsm.o
                0x00001436                _ZN12Hpma115s0Fsm19SensorDisabledState6OnPollEv
 .text._ZN12Hpma115s0Fsm35ReadParticleMeasurementResultsStateD2Ev
                0x00001458        0x2 avr\src\Hpma115s0\Fsm.o
                0x00001458                _ZN12Hpma115s0Fsm35ReadParticleMeasurementResultsStateD2Ev
                0x00001458                _ZN12Hpma115s0Fsm35ReadParticleMeasurementResultsStateD1Ev
 .text._ZN12Hpma115s0Fsm18SensorEnabledStateD2Ev
                0x0000145a        0x2 avr\src\Hpma115s0\Fsm.o
                0x0000145a                _ZN12Hpma115s0Fsm18SensorEnabledStateD2Ev
                0x0000145a                _ZN12Hpma115s0Fsm18SensorEnabledStateD1Ev
 .text._ZN12Hpma115s0Fsm24SensorStabilizationStateD2Ev
                0x0000145c        0x2 avr\src\Hpma115s0\Fsm.o
                0x0000145c                _ZN12Hpma115s0Fsm24SensorStabilizationStateD2Ev
                0x0000145c                _ZN12Hpma115s0Fsm24SensorStabilizationStateD1Ev
 .text._ZN12Hpma115s0Fsm29StartParticleMeasurementStateD2Ev
                0x0000145e        0x2 avr\src\Hpma115s0\Fsm.o
                0x0000145e                _ZN12Hpma115s0Fsm29StartParticleMeasurementStateD2Ev
                0x0000145e                _ZN12Hpma115s0Fsm29StartParticleMeasurementStateD1Ev
 .text._ZN12Hpma115s0Fsm19SensorDisabledStateD2Ev
                0x00001460        0x2 avr\src\Hpma115s0\Fsm.o
                0x00001460                _ZN12Hpma115s0Fsm19SensorDisabledStateD1Ev
                0x00001460                _ZN12Hpma115s0Fsm19SensorDisabledStateD2Ev
 .text._ZN12Hpma115s0Fsm28StopParticleMeasurementStateD2Ev
                0x00001462        0x2 avr\src\Hpma115s0\Fsm.o
                0x00001462                _ZN12Hpma115s0Fsm28StopParticleMeasurementStateD2Ev
                0x00001462                _ZN12Hpma115s0Fsm28StopParticleMeasurementStateD1Ev
 .text._ZN12Hpma115s0Fsm20DisableAutoSendStateD2Ev
                0x00001464        0x2 avr\src\Hpma115s0\Fsm.o
                0x00001464                _ZN12Hpma115s0Fsm20DisableAutoSendStateD2Ev
                0x00001464                _ZN12Hpma115s0Fsm20DisableAutoSendStateD1Ev
 .text._ZN12Hpma115s0Fsm19InitializationStateD2Ev
                0x00001466        0x2 avr\src\Hpma115s0\Fsm.o
                0x00001466                _ZN12Hpma115s0Fsm19InitializationStateD1Ev
                0x00001466                _ZN12Hpma115s0Fsm19InitializationStateD2Ev
 .text._ZN12Hpma115s0Fsm35ReadParticleMeasurementResultsStateD0Ev
                0x00001468        0x6 avr\src\Hpma115s0\Fsm.o
                0x00001468                _ZN12Hpma115s0Fsm35ReadParticleMeasurementResultsStateD0Ev
 .text._ZN12Hpma115s0Fsm18SensorEnabledStateD0Ev
                0x0000146e        0x6 avr\src\Hpma115s0\Fsm.o
                0x0000146e                _ZN12Hpma115s0Fsm18SensorEnabledStateD0Ev
 .text._ZN12Hpma115s0Fsm24SensorStabilizationStateD0Ev
                0x00001474        0x6 avr\src\Hpma115s0\Fsm.o
                0x00001474                _ZN12Hpma115s0Fsm24SensorStabilizationStateD0Ev
 .text._ZN12Hpma115s0Fsm29StartParticleMeasurementStateD0Ev
                0x0000147a        0x6 avr\src\Hpma115s0\Fsm.o
                0x0000147a                _ZN12Hpma115s0Fsm29StartParticleMeasurementStateD0Ev
 .text._ZN12Hpma115s0Fsm19SensorDisabledStateD0Ev
                0x00001480        0x6 avr\src\Hpma115s0\Fsm.o
                0x00001480                _ZN12Hpma115s0Fsm19SensorDisabledStateD0Ev
 .text._ZN12Hpma115s0Fsm28StopParticleMeasurementStateD0Ev
                0x00001486        0x6 avr\src\Hpma115s0\Fsm.o
                0x00001486                _ZN12Hpma115s0Fsm28StopParticleMeasurementStateD0Ev
 .text._ZN12Hpma115s0Fsm20DisableAutoSendStateD0Ev
                0x0000148c        0x6 avr\src\Hpma115s0\Fsm.o
                0x0000148c                _ZN12Hpma115s0Fsm20DisableAutoSendStateD0Ev
 .text._ZN12Hpma115s0Fsm19InitializationStateD0Ev
                0x00001492        0x6 avr\src\Hpma115s0\Fsm.o
                0x00001492                _ZN12Hpma115s0Fsm19InitializationStateD0Ev
 .text._ZN11SystemTimer4PollEv
                0x00001498       0x1c avr\src\Hpma115s0\Fsm.o
                0x00001498                _ZN11SystemTimer4PollEv
 .text._ZN12Hpma115s0Fsm19InitializationState7OnEntryEv
                0x000014b4       0x56 avr\src\Hpma115s0\Fsm.o
                0x000014b4                _ZN12Hpma115s0Fsm19InitializationState7OnEntryEv
 .text._ZNK12OneshotTimer9IsExpiredEv
                0x0000150a       0x3e avr\src\Hpma115s0\Fsm.o
                0x0000150a                _ZNK12OneshotTimer9IsExpiredEv
 .text._ZN12Hpma115s0Fsm19InitializationState6OnPollEv
                0x00001548       0x16 avr\src\Hpma115s0\Fsm.o
                0x00001548                _ZN12Hpma115s0Fsm19InitializationState6OnPollEv
 .text._ZN12Hpma115s0Fsm24SensorStabilizationState6OnPollEv
                0x0000155e       0x32 avr\src\Hpma115s0\Fsm.o
                0x0000155e                _ZN12Hpma115s0Fsm24SensorStabilizationState6OnPollEv
 .text._ZN12Hpma115s0Fsm18SensorEnabledState6OnPollEv
                0x00001590       0x32 avr\src\Hpma115s0\Fsm.o
                0x00001590                _ZN12Hpma115s0Fsm18SensorEnabledState6OnPollEv
 .text._ZN6Usart07FlushRxEv
                0x000015c2       0x14 avr\src\Hpma115s0\Fsm.o
                0x000015c2                _ZN6Usart07FlushRxEv
 .text._ZN12Hpma115s0Fsm18SensorEnabledState7OnEntryEv
                0x000015d6       0x1e avr\src\Hpma115s0\Fsm.o
                0x000015d6                _ZN12Hpma115s0Fsm18SensorEnabledState7OnEntryEv
 .text._ZN12Hpma115s0Fsm19SensorDisabledState7OnEntryEv
                0x000015f4       0x12 avr\src\Hpma115s0\Fsm.o
                0x000015f4                _ZN12Hpma115s0Fsm19SensorDisabledState7OnEntryEv
 .text._ZN12Hpma115s0Fsm24SensorStabilizationState7OnEntryEv
                0x00001606       0x22 avr\src\Hpma115s0\Fsm.o
                0x00001606                _ZN12Hpma115s0Fsm24SensorStabilizationState7OnEntryEv
 .text._ZN13SharedHelpers4Uart15TransmitRequestEPKvh
                0x00001628       0x3a avr\src\Hpma115s0\Fsm.o
                0x00001628                _ZN13SharedHelpers4Uart15TransmitRequestEPKvh
 .text._ZN12Hpma115s0Fsm29StartParticleMeasurementState7OnEntryEv
                0x00001662        0x8 avr\src\Hpma115s0\Fsm.o
                0x00001662                _ZN12Hpma115s0Fsm29StartParticleMeasurementState7OnEntryEv
 .text._ZN12Hpma115s0Fsm20DisableAutoSendState7OnEntryEv
                0x0000166a        0x8 avr\src\Hpma115s0\Fsm.o
                0x0000166a                _ZN12Hpma115s0Fsm20DisableAutoSendState7OnEntryEv
 .text._ZN12Hpma115s0Fsm28StopParticleMeasurementState7OnEntryEv
                0x00001672        0x8 avr\src\Hpma115s0\Fsm.o
                0x00001672                _ZN12Hpma115s0Fsm28StopParticleMeasurementState7OnEntryEv
 .text._ZN12Hpma115s0Fsm35ReadParticleMeasurementResultsState7OnEntryEv
                0x0000167a        0x8 avr\src\Hpma115s0\Fsm.o
                0x0000167a                _ZN12Hpma115s0Fsm35ReadParticleMeasurementResultsState7OnEntryEv
 .text._ZN13SharedHelpers4Uart15ReceiveResponseEjh
                0x00001682       0xf0 avr\src\Hpma115s0\Fsm.o
                0x00001682                _ZN13SharedHelpers4Uart15ReceiveResponseEjh
 .text._ZN12Hpma115s0Fsm20DisableAutoSendState6OnPollEv
                0x00001772       0x26 avr\src\Hpma115s0\Fsm.o
                0x00001772                _ZN12Hpma115s0Fsm20DisableAutoSendState6OnPollEv
 .text._ZN12Hpma115s0Fsm28StopParticleMeasurementState6OnPollEv
                0x00001798       0x18 avr\src\Hpma115s0\Fsm.o
                0x00001798                _ZN12Hpma115s0Fsm28StopParticleMeasurementState6OnPollEv
 .text._ZN12Hpma115s0Fsm29StartParticleMeasurementState6OnPollEv
                0x000017b0       0x18 avr\src\Hpma115s0\Fsm.o
                0x000017b0                _ZN12Hpma115s0Fsm29StartParticleMeasurementState6OnPollEv
 .text._ZN12Hpma115s0Fsm35ReadParticleMeasurementResultsState6OnPollEv
                0x000017c8       0xa2 avr\src\Hpma115s0\Fsm.o
                0x000017c8                _ZN12Hpma115s0Fsm35ReadParticleMeasurementResultsState6OnPollEv
 .text._ZN3Mcu4PollEv
                0x0000186a       0x12 avr\src\Mcu.o
                0x0000186a                _ZN3Mcu4PollEv
 .text.__vector_6
                0x0000187c       0x10 avr\src\Mcu.o
                0x0000187c                __vector_6
 .text._ZN10PushButton4PollEv
                0x0000188c       0x72 avr\src\Sensors.o
                0x0000188c                _ZN10PushButton4PollEv
 .text._ZN7Display27ForcePm2p5SensorPowerOnInfoEb
                0x000018fe       0x78 avr\src\Sensors.o
                0x000018fe                _ZN7Display27ForcePm2p5SensorPowerOnInfoEb
 .text._ZN7Sensors26SetHpma115s0StateAtPowerOnEv
                0x00001976       0x5c avr\src\Sensors.o
                0x00001976                _ZN7Sensors26SetHpma115s0StateAtPowerOnEv
 .text._ZN3Usb3Hid9ControlEp22HandleSetupTransactionEPK10usbRequest
                0x000019d2      0x168 avr\src\Usb\Hid\ControlEp.o
                0x000019d2                _ZN3Usb3Hid9ControlEp22HandleSetupTransactionEPK10usbRequest
 .text.usbFunctionSetup
                0x00001b3a        0x2 avr\src\Usb\Hid\ControlEp.o
                0x00001b3a                usbFunctionSetup
 .text.usbFunctionWrite
                0x00001b3c       0xa2 avr\src\Usb\Hid\ControlEp.o
                0x00001b3c                usbFunctionWrite
 .text.usbFunctionRead
                0x00001bde       0x82 avr\src\Usb\Hid\ControlEp.o
                0x00001bde                usbFunctionRead
 .text.usbFunctionDescriptor
                0x00001c60       0x4c avr\src\Usb\descriptors.o
                0x00001c60                usbFunctionDescriptor
 .text._ZdlPvj  0x00001cac        0xa avr\src\abi.o
                0x00001cac                _ZdlPvj
 .text._ZN7Display22AssertLocationToStringERA40_cPKcj
                0x00001cb6      0x162 avr\src\assertHandler.o
                0x00001cb6                _ZN7Display22AssertLocationToStringERA40_cPKcj
 .text.g_HandleAssertFailure
                0x00001e18       0xb6 avr\src\assertHandler.o
                0x00001e18                g_HandleAssertFailure
 .text.__vector_default
                0x00001ece        0xc avr\src\badIsrHandler.o
                0x00001ece                __vector_default
 .text.PulseEnable
                0x00001eda        0xa avr\src\lcd-hd44780.o
 .text.WriteByte
                0x00001ee4       0x64 avr\src\lcd-hd44780.o
 .text.LCD_ReadInstruction
                0x00001f48       0x40 avr\src\lcd-hd44780.o
                0x00001f48                LCD_ReadInstruction
 .text.LCD_WriteData
                0x00001f88       0x12 avr\src\lcd-hd44780.o
                0x00001f88                LCD_WriteData
 .text.LCD_WriteString
                0x00001f9a       0x1a avr\src\lcd-hd44780.o
                0x00001f9a                LCD_WriteString
 .text.LCD_WriteStringP
                0x00001fb4       0x20 avr\src\lcd-hd44780.o
                0x00001fb4                LCD_WriteStringP
 .text.LCD_WriteInstruction
                0x00001fd4       0x12 avr\src\lcd-hd44780.o
                0x00001fd4                LCD_WriteInstruction
 .text.LCD_Init
                0x00001fe6       0x66 avr\src\lcd-hd44780.o
                0x00001fe6                LCD_Init
 .text.LCD_WriteCgramP
                0x0000204c       0x38 avr\src\lcd-hd44780.o
                0x0000204c                LCD_WriteCgramP
 .text._ZN3BcdL9IsInRangeEhhh
                0x00002084       0x1e avr\src\main.o
 .text._ZN3Usb3Hid10Collection20GetControlEpInBufferERj
                0x000020a2       0x10 avr\src\main.o
                0x000020a2                _ZN3Usb3Hid10Collection20GetControlEpInBufferERj
 .text._ZN3Usb3Hid10Collection17GetIntrInEpBufferERj
                0x000020b2       0x10 avr\src\main.o
                0x000020b2                _ZN3Usb3Hid10Collection17GetIntrInEpBufferERj
 .text._ZN3Usb3Hid9OutReportINS0_9RtcUpdate16OutputReportDataEED2Ev
                0x000020c2        0x2 avr\src\main.o
                0x000020c2                _ZN3Usb3Hid9OutReportINS0_9RtcUpdate16OutputReportDataEED1Ev
                0x000020c2                _ZN3Usb3Hid9OutReportINS0_9RtcUpdate16OutputReportDataEED2Ev
 .text._ZN3Usb3Hid8InReportINS0_6Sensor15InputReportDataIjEEED2Ev
                0x000020c4        0x2 avr\src\main.o
                0x000020c4                _ZN3Usb3Hid8InReportINS0_6Sensor15InputReportDataIjEEED1Ev
                0x000020c4                _ZN3Usb3Hid8InReportINS0_6Sensor15InputReportDataIjEEED2Ev
 .text._ZN3Usb3Hid8InReportINS0_6Sensor17FeatureReportDataINS2_27SingleValueCustomPropertiesIjEEEEED2Ev
                0x000020c6        0x2 avr\src\main.o
                0x000020c6                _ZN3Usb3Hid8InReportINS0_6Sensor17FeatureReportDataINS2_27SingleValueCustomPropertiesIjEEEEED2Ev
                0x000020c6                _ZN3Usb3Hid8InReportINS0_6Sensor17FeatureReportDataINS2_27SingleValueCustomPropertiesIjEEEEED1Ev
 .text._ZN3Usb3Hid9OutReportINS0_6Sensor17FeatureReportDataINS2_27SingleValueCustomPropertiesIjEEEEED2Ev
                0x000020c8        0x2 avr\src\main.o
                0x000020c8                _ZN3Usb3Hid9OutReportINS0_6Sensor17FeatureReportDataINS2_27SingleValueCustomPropertiesIjEEEEED2Ev
                0x000020c8                _ZN3Usb3Hid9OutReportINS0_6Sensor17FeatureReportDataINS2_27SingleValueCustomPropertiesIjEEEEED1Ev
 .text._ZN3Usb3Hid6Sensor13GenericSensorIjNS1_27SingleValueCustomPropertiesIjEEED2Ev
                0x000020ca        0x2 avr\src\main.o
                0x000020ca                _ZN3Usb3Hid6Sensor13GenericSensorIjNS1_27SingleValueCustomPropertiesIjEEED1Ev
                0x000020ca                _ZN3Usb3Hid6Sensor13GenericSensorIjNS1_27SingleValueCustomPropertiesIjEEED2Ev
 .text._ZN3Usb3Hid8ConsumerINS0_9RtcUpdate16OutputReportDataEE9GetReportEhhh
                0x000020cc       0x1a avr\src\main.o
                0x000020cc                _ZN3Usb3Hid8ConsumerINS0_9RtcUpdate16OutputReportDataEE9GetReportEhhh
 .text._ZN3Usb3Hid8ConsumerINS0_9RtcUpdate16OutputReportDataEE15OnIntrInEpReadyERNS0_8IntrInEpE
                0x000020e6        0x4 avr\src\main.o
                0x000020e6                _ZN3Usb3Hid8ConsumerINS0_9RtcUpdate16OutputReportDataEE15OnIntrInEpReadyERNS0_8IntrInEpE
 .text._ZN3Usb3Hid9RtcUpdate9PerformerD2Ev
                0x000020ea        0x2 avr\src\main.o
                0x000020ea                _ZN3Usb3Hid9RtcUpdate9PerformerD2Ev
                0x000020ea                _ZN3Usb3Hid9RtcUpdate9PerformerD1Ev
 .text._ZN3Usb3Hid8ConsumerINS0_9RtcUpdate16OutputReportDataEED2Ev
                0x000020ec        0x2 avr\src\main.o
                0x000020ec                _ZN3Usb3Hid8ConsumerINS0_9RtcUpdate16OutputReportDataEED2Ev
                0x000020ec                _ZN3Usb3Hid8ConsumerINS0_9RtcUpdate16OutputReportDataEED1Ev
 .text._ZN3Usb3Hid6Sensor11SingleValueIjED2Ev
                0x000020ee        0x2 avr\src\main.o
                0x000020ee                _ZN3Usb3Hid6Sensor11SingleValueIjED2Ev
                0x000020ee                _ZN3Usb3Hid6Sensor11SingleValueIjED1Ev
 .text._ZN3Usb3Hid10CollectionD2Ev
                0x000020f0        0x2 avr\src\main.o
                0x000020f0                _ZN3Usb3Hid10CollectionD1Ev
                0x000020f0                _ZN3Usb3Hid10CollectionD2Ev
 .text._ZN3Usb3Hid9OutReportINS0_9RtcUpdate16OutputReportDataEE10GetRawDataERj
                0x000020f2        0xe avr\src\main.o
                0x000020f2                _ZN3Usb3Hid9OutReportINS0_9RtcUpdate16OutputReportDataEE10GetRawDataERj
 .text._ZN3Usb3Hid9OutReportINS0_9RtcUpdate16OutputReportDataEE8OnUpdateEv
                0x00002100       0x18 avr\src\main.o
                0x00002100                _ZN3Usb3Hid9OutReportINS0_9RtcUpdate16OutputReportDataEE8OnUpdateEv
 .text._ZN3Usb3Hid6Sensor13GenericSensorIjNS1_27SingleValueCustomPropertiesIjEEE21SetReportIntervalInMsEm
                0x00002118       0x5a avr\src\main.o
                0x00002118                _ZN3Usb3Hid6Sensor13GenericSensorIjNS1_27SingleValueCustomPropertiesIjEEE21SetReportIntervalInMsEm
 .text._ZN3Usb3Hid9OutReportINS0_6Sensor17FeatureReportDataINS2_27SingleValueCustomPropertiesIjEEEEE10GetRawDataERj
                0x00002172        0xe avr\src\main.o
                0x00002172                _ZN3Usb3Hid9OutReportINS0_6Sensor17FeatureReportDataINS2_27SingleValueCustomPropertiesIjEEEEE10GetRawDataERj
 .text._ZN3Usb3Hid9OutReportINS0_6Sensor17FeatureReportDataINS2_27SingleValueCustomPropertiesIjEEEEE8OnUpdateEv
                0x00002180       0x18 avr\src\main.o
                0x00002180                _ZN3Usb3Hid9OutReportINS0_6Sensor17FeatureReportDataINS2_27SingleValueCustomPropertiesIjEEEEE8OnUpdateEv
 .text._ZN3Usb3Hid8InReportINS0_6Sensor17FeatureReportDataINS2_27SingleValueCustomPropertiesIjEEEEE10GetRawDataERj
                0x00002198        0xe avr\src\main.o
                0x00002198                _ZN3Usb3Hid8InReportINS0_6Sensor17FeatureReportDataINS2_27SingleValueCustomPropertiesIjEEEEE10GetRawDataERj
 .text._ZN3Usb3Hid8InReportINS0_6Sensor15InputReportDataIjEEE10GetRawDataERj
                0x000021a6        0xe avr\src\main.o
                0x000021a6                _ZN3Usb3Hid8InReportINS0_6Sensor15InputReportDataIjEEE10GetRawDataERj
 .text._ZN3Usb3Hid10Collection8OnUpdateERNS0_6ReportE
                0x000021b4        0xa avr\src\main.o
                0x000021b4                _ZN3Usb3Hid10Collection8OnUpdateERNS0_6ReportE
 .text._ZN3Usb3Hid8ConsumerINS0_9RtcUpdate16OutputReportDataEE8OnUpdateERNS0_6ReportE
                0x000021be       0x36 avr\src\main.o
                0x000021be                _ZN3Usb3Hid8ConsumerINS0_9RtcUpdate16OutputReportDataEE8OnUpdateERNS0_6ReportE
 .text._ZN3Usb3Hid8InReportINS0_6Sensor17FeatureReportDataINS2_27SingleValueCustomPropertiesIjEEEEE8OnUpdateEv
                0x000021f4        0xa avr\src\main.o
                0x000021f4                _ZN3Usb3Hid8InReportINS0_6Sensor17FeatureReportDataINS2_27SingleValueCustomPropertiesIjEEEEE8OnUpdateEv
 .text._ZN3Usb3Hid8InReportINS0_6Sensor15InputReportDataIjEEE8OnUpdateEv
                0x000021fe        0xa avr\src\main.o
                0x000021fe                _ZN3Usb3Hid8InReportINS0_6Sensor15InputReportDataIjEEE8OnUpdateEv
 .text._ZN3Usb3Hid9RtcUpdate9PerformerD0Ev
                0x00002208        0x6 avr\src\main.o
                0x00002208                _ZN3Usb3Hid9RtcUpdate9PerformerD0Ev
 .text._ZN3Usb3Hid9OutReportINS0_6Sensor17FeatureReportDataINS2_27SingleValueCustomPropertiesIjEEEEED0Ev
                0x0000220e        0x6 avr\src\main.o
                0x0000220e                _ZN3Usb3Hid9OutReportINS0_6Sensor17FeatureReportDataINS2_27SingleValueCustomPropertiesIjEEEEED0Ev
 .text._ZN3Usb3Hid8InReportINS0_6Sensor17FeatureReportDataINS2_27SingleValueCustomPropertiesIjEEEEED0Ev
                0x00002214        0x6 avr\src\main.o
                0x00002214                _ZN3Usb3Hid8InReportINS0_6Sensor17FeatureReportDataINS2_27SingleValueCustomPropertiesIjEEEEED0Ev
 .text._ZN3Usb3Hid6Sensor13GenericSensorIjNS1_27SingleValueCustomPropertiesIjEEED0Ev
                0x0000221a        0x6 avr\src\main.o
                0x0000221a                _ZN3Usb3Hid6Sensor13GenericSensorIjNS1_27SingleValueCustomPropertiesIjEEED0Ev
 .text._ZN3Usb3Hid6Sensor11SingleValueIjED0Ev
                0x00002220        0x6 avr\src\main.o
                0x00002220                _ZN3Usb3Hid6Sensor11SingleValueIjED0Ev
 .text._ZN3Usb3Hid8InReportINS0_6Sensor15InputReportDataIjEEED0Ev
                0x00002226        0x6 avr\src\main.o
                0x00002226                _ZN3Usb3Hid8InReportINS0_6Sensor15InputReportDataIjEEED0Ev
 .text._ZN3Usb3Hid10CollectionD0Ev
                0x0000222c        0x6 avr\src\main.o
                0x0000222c                _ZN3Usb3Hid10CollectionD0Ev
 .text._ZN3Usb3Hid8ConsumerINS0_9RtcUpdate16OutputReportDataEED0Ev
                0x00002232        0x6 avr\src\main.o
                0x00002232                _ZN3Usb3Hid8ConsumerINS0_9RtcUpdate16OutputReportDataEED0Ev
 .text._ZN3Usb3Hid9OutReportINS0_9RtcUpdate16OutputReportDataEED0Ev
                0x00002238        0x6 avr\src\main.o
                0x00002238                _ZN3Usb3Hid9OutReportINS0_9RtcUpdate16OutputReportDataEED0Ev
 .text._ZN3Usb3Hid6Sensor13GenericSensorIjNS1_27SingleValueCustomPropertiesIjEEE8OnUpdateERNS0_6ReportE
                0x0000223e       0xb6 avr\src\main.o
                0x0000223e                _ZN3Usb3Hid6Sensor13GenericSensorIjNS1_27SingleValueCustomPropertiesIjEEE8OnUpdateERNS0_6ReportE
 .text._ZN3Usb3Hid6Sensor11SingleValueIjE8OnUpdateERNS0_6ReportE
                0x000022f4       0x38 avr\src\main.o
                0x000022f4                _ZN3Usb3Hid6Sensor11SingleValueIjE8OnUpdateERNS0_6ReportE
 .text._ZN3Usb3Hid6Sensor13GenericSensorIjNS1_27SingleValueCustomPropertiesIjEEE9GetReportEhhh
                0x0000232c       0x3e avr\src\main.o
                0x0000232c                _ZN3Usb3Hid6Sensor13GenericSensorIjNS1_27SingleValueCustomPropertiesIjEEE9GetReportEhhh
 .text._ZN3Usb3Hid10Collection9GetReportEhhh
                0x0000236a       0x72 avr\src\main.o
                0x0000236a                _ZN3Usb3Hid10Collection9GetReportEhhh
 .text._ZN9Backlight12SetDutyCycleEh
                0x000023dc       0x4e avr\src\main.o
                0x000023dc                _ZN9Backlight12SetDutyCycleEh
 .text._ZNK3Bcd4Date7IsValidEv
                0x0000242a       0x82 avr\src\main.o
                0x0000242a                _ZNK3Bcd4Date7IsValidEv
 .text._ZNK3Bcd4Time7IsValidEv
                0x000024ac       0x32 avr\src\main.o
                0x000024ac                _ZNK3Bcd4Time7IsValidEv
 .text._ZN3Adc17TriggerConversionENS_7ChannelE
                0x000024de       0x16 avr\src\main.o
                0x000024de                _ZN3Adc17TriggerConversionENS_7ChannelE
 .text._ZN3Adc14ConvertChannelENS_7ChannelE
                0x000024f4       0x14 avr\src\main.o
                0x000024f4                _ZN3Adc14ConvertChannelENS_7ChannelE
 .text._ZN3Usb3Hid6Sensor13GenericSensorIjNS1_27SingleValueCustomPropertiesIjEEE15OnIntrInEpReadyERNS0_8IntrInEpE
                0x00002508       0xd4 avr\src\main.o
                0x00002508                _ZN3Usb3Hid6Sensor13GenericSensorIjNS1_27SingleValueCustomPropertiesIjEEE15OnIntrInEpReadyERNS0_8IntrInEpE
 .text._ZN3Usb3Hid10Collection15OnIntrInEpReadyERNS0_8IntrInEpE
                0x000025dc       0x4e avr\src\main.o
                0x000025dc                _ZN3Usb3Hid10Collection15OnIntrInEpReadyERNS0_8IntrInEpE
 .text._ZN3I2c6Master12TransmitStopEv
                0x0000262a       0x10 avr\src\main.o
                0x0000262a                _ZN3I2c6Master12TransmitStopEv
 .text._ZN3I2c6Master8TransferEhPvhb
                0x0000263a      0x12c avr\src\main.o
                0x0000263a                _ZN3I2c6Master8TransferEhPvhb
 .text._ZN3I2c6Master4ReadEhhPvhb
                0x00002766       0x4c avr\src\main.o
                0x00002766                _ZN3I2c6Master4ReadEhhPvhb
 .text._ZNK13PeriodicTimer5IsDueEv
                0x000027b2       0x40 avr\src\main.o
                0x000027b2                _ZNK13PeriodicTimer5IsDueEv
 .text._ZN6Bme2804PollEv
                0x000027f2       0xe2 avr\src\main.o
                0x000027f2                _ZN6Bme2804PollEv
 .text._ZN6Bme28019ReadCalibrationDataEv
                0x000028d4       0x96 avr\src\main.o
                0x000028d4                _ZN6Bme28019ReadCalibrationDataEv
 .text._ZN6Bme2807StartupEv
                0x0000296a      0x10e avr\src\main.o
                0x0000296a                _ZN6Bme2807StartupEv
 .text._ZN12Hpma115s0Fsm7Machine4PollEv
                0x00002a78       0x40 avr\src\main.o
                0x00002a78                _ZN12Hpma115s0Fsm7Machine4PollEv
 .text._ZN7Display11BcdToStringEPch
                0x00002ab8       0x18 avr\src\main.o
                0x00002ab8                _ZN7Display11BcdToStringEPch
 .text._ZN7Display11DecToStringEPclh
                0x00002ad0      0x126 avr\src\main.o
                0x00002ad0                _ZN7Display11DecToStringEPclh
 .text._ZN7Display11DecToStringEPchlh
                0x00002bf6       0x84 avr\src\main.o
                0x00002bf6                _ZN7Display11DecToStringEPchlh
 .text._ZN7Display6UpdateERKN3Bcd4TimeERKNS0_4DateEbRKN6Bme28019AtmosphericPressureERKNS7_11TemperatureERKNS7_16RelativeHumidityERKN12Hpma115s0Fsm7Machine5Pm2p5E
                0x00002c7a      0x23e avr\src\main.o
                0x00002c7a                _ZN7Display6UpdateERKN3Bcd4TimeERKNS0_4DateEbRKN6Bme28019AtmosphericPressureERKNS7_11TemperatureERKNS7_16RelativeHumidityERKN12Hpma115s0Fsm7Machine5Pm2p5E
 .text._ZN7Pcf85637StartupEj
                0x00002eb8       0xd8 avr\src\main.o
                0x00002eb8                _ZN7Pcf85637StartupEj
 .text._ZN7Pcf856311SetTimeDateERKN3Bcd4TimeERKNS0_4DateEb
                0x00002f90       0x80 avr\src\main.o
                0x00002f90                _ZN7Pcf856311SetTimeDateERKN3Bcd4TimeERKNS0_4DateEb
 .text._ZN3Usb3Hid9RtcUpdate9Performer8OnUpdateERKNS1_16OutputReportDataE
                0x00003010       0x96 avr\src\main.o
                0x00003010                _ZN3Usb3Hid9RtcUpdate9Performer8OnUpdateERKNS1_16OutputReportDataE
 .text._ZN3Usb9VbusSense14IsHostDetectedEv
                0x000030a6       0x16 avr\src\main.o
                0x000030a6                _ZN3Usb9VbusSense14IsHostDetectedEv
 .text._ZN19SimpleMovingAverageIjLh16EE9AddSampleEj
                0x000030bc       0x58 avr\src\main.o
                0x000030bc                _ZN19SimpleMovingAverageIjLh16EE9AddSampleEj
 .text._ZN7Sensors4PollEv
                0x00003114       0x6a avr\src\main.o
                0x00003114                _ZN7Sensors4PollEv
 .text._ZL7PollAllv
                0x0000317e      0x17c avr\src\main.o
 .text._ZN3Usb3Hid6Sensor11SingleValueIjE8SetValueERKj
                0x000032fa       0x4a avr\src\main.o
                0x000032fa                _ZN3Usb3Hid6Sensor11SingleValueIjE8SetValueERKj
 .text._ZN3Usb3Hid6Sensor13GenericSensorIjNS1_27SingleValueCustomPropertiesIjEEEC2EhmmRKjRKS4_NS1_11SensorStateENS1_14ConnectionTypeE
                0x00003344      0x1b2 avr\src\main.o
                0x00003344                _ZN3Usb3Hid6Sensor13GenericSensorIjNS1_27SingleValueCustomPropertiesIjEEEC2EhmmRKjRKS4_NS1_11SensorStateENS1_14ConnectionTypeE
                0x00003344                _ZN3Usb3Hid6Sensor13GenericSensorIjNS1_27SingleValueCustomPropertiesIjEEEC1EhmmRKjRKS4_NS1_11SensorStateENS1_14ConnectionTypeE
 .text._ZN3Usb3Hid10CollectionC2Ev
                0x000034f6      0x1b2 avr\src\main.o
                0x000034f6                _ZN3Usb3Hid10CollectionC1Ev
                0x000034f6                _ZN3Usb3Hid10CollectionC2Ev
 .text._ZN7Sensors7StartupEv
                0x000036a8       0x6e avr\src\main.o
                0x000036a8                _ZN7Sensors7StartupEv
 .text.startup.main
                0x00003716      0x522 avr\src\main.o
                0x00003716                main
 .text.libgcc.mul
                0x00003c38       0x1e d:/dev/avr/tools/avr8-gnu-toolchain-3.6.2.1759-win32.any.x86/avr8-gnu-toolchain-win32_x86/bin/../lib/gcc/avr/5.4.0/avr5\libgcc.a(_mulsi3.o)
                0x00003c38                __mulsi3
 .text.libgcc.div
                0x00003c56       0x44 d:/dev/avr/tools/avr8-gnu-toolchain-3.6.2.1759-win32.any.x86/avr8-gnu-toolchain-win32_x86/bin/../lib/gcc/avr/5.4.0/avr5\libgcc.a(_udivmodsi4.o)
                0x00003c56                __udivmodsi4
 .text.libgcc.div
                0x00003c9a       0x28 d:/dev/avr/tools/avr8-gnu-toolchain-3.6.2.1759-win32.any.x86/avr8-gnu-toolchain-win32_x86/bin/../lib/gcc/avr/5.4.0/avr5\libgcc.a(_divmodsi4.o)
                0x00003c9a                __divmodsi4
 .text.libgcc.div
                0x00003cc2       0x10 d:/dev/avr/tools/avr8-gnu-toolchain-3.6.2.1759-win32.any.x86/avr8-gnu-toolchain-win32_x86/bin/../lib/gcc/avr/5.4.0/avr5\libgcc.a(_negsi2.o)
                0x00003cc2                __negsi2
 .text.libgcc.mul
                0x00003cd2       0x1e d:/dev/avr/tools/avr8-gnu-toolchain-3.6.2.1759-win32.any.x86/avr8-gnu-toolchain-win32_x86/bin/../lib/gcc/avr/5.4.0/avr5\libgcc.a(_umulhisi3.o)
                0x00003cd2                __umulhisi3
 .text.libgcc.mul
                0x00003cf0       0x14 d:/dev/avr/tools/avr8-gnu-toolchain-3.6.2.1759-win32.any.x86/avr8-gnu-toolchain-win32_x86/bin/../lib/gcc/avr/5.4.0/avr5\libgcc.a(_muluhisi3.o)
                0x00003cf0                __muluhisi3
 .text.libgcc.mul
                0x00003d04        0xc d:/dev/avr/tools/avr8-gnu-toolchain-3.6.2.1759-win32.any.x86/avr8-gnu-toolchain-win32_x86/bin/../lib/gcc/avr/5.4.0/avr5\libgcc.a(_mulshisi3.o)
                0x00003d04                __mulshisi3
                0x00003d08                __mulohisi3
 .text.avr-libc
                0x00003d10       0x12 d:/dev/avr/tools/avr8-gnu-toolchain-3.6.2.1759-win32.any.x86/avr8-gnu-toolchain-win32_x86/bin/../lib/gcc/avr/5.4.0/../../../../avr/lib/avr5\libc.a(memcpy_P.o)
                0x00003d10                memcpy_P
 .text.avr-libc
                0x00003d22        0xe d:/dev/avr/tools/avr8-gnu-toolchain-3.6.2.1759-win32.any.x86/avr8-gnu-toolchain-win32_x86/bin/../lib/gcc/avr/5.4.0/../../../../avr/lib/avr5\libc.a(strcpy_P.o)
                0x00003d22                strcpy_P
 .text.avr-libc
                0x00003d30       0x12 d:/dev/avr/tools/avr8-gnu-toolchain-3.6.2.1759-win32.any.x86/avr8-gnu-toolchain-win32_x86/bin/../lib/gcc/avr/5.4.0/../../../../avr/lib/avr5\libc.a(strlen_P.o)
                0x00003d30                __strlen_P
 .text.avr-libc
                0x00003d42       0x12 d:/dev/avr/tools/avr8-gnu-toolchain-3.6.2.1759-win32.any.x86/avr8-gnu-toolchain-win32_x86/bin/../lib/gcc/avr/5.4.0/../../../../avr/lib/avr5\libc.a(memcpy.o)
                0x00003d42                memcpy
 .text.avr-libc
                0x00003d54       0x10 d:/dev/avr/tools/avr8-gnu-toolchain-3.6.2.1759-win32.any.x86/avr8-gnu-toolchain-win32_x86/bin/../lib/gcc/avr/5.4.0/../../../../avr/lib/avr5\libatmega168pa.a(eerd_byte.o)
                0x00003d54                eeprom_read_byte
 .text.avr-libc
                0x00003d64       0x1c d:/dev/avr/tools/avr8-gnu-toolchain-3.6.2.1759-win32.any.x86/avr8-gnu-toolchain-win32_x86/bin/../lib/gcc/avr/5.4.0/../../../../avr/lib/avr5\libatmega168pa.a(eewr_byte.o)
                0x00003d64                eeprom_write_byte
                0x00003d66                eeprom_write_r18
                0x00003d80                . = ALIGN (0x2)
 *(.fini9)
 .fini9         0x00003d80        0x0 d:/dev/avr/tools/avr8-gnu-toolchain-3.6.2.1759-win32.any.x86/avr8-gnu-toolchain-win32_x86/bin/../lib/gcc/avr/5.4.0/avr5\libgcc.a(_exit.o)
                0x00003d80                _exit
                0x00003d80                exit
 *(.fini9)
 *(.fini8)
 *(.fini8)
 *(.fini7)
 *(.fini7)
 *(.fini6)
 *(.fini6)
 *(.fini5)
 *(.fini5)
 *(.fini4)
 *(.fini4)
 *(.fini3)
 *(.fini3)
 *(.fini2)
 *(.fini2)
 *(.fini1)
 *(.fini1)
 *(.fini0)
 .fini0         0x00003d80        0x4 d:/dev/avr/tools/avr8-gnu-toolchain-3.6.2.1759-win32.any.x86/avr8-gnu-toolchain-win32_x86/bin/../lib/gcc/avr/5.4.0/avr5\libgcc.a(_exit.o)
 *(.fini0)
                0x00003d84                _etext = .

.data           0x00800100       0xfe load address 0x00003d84
                0x00800100                PROVIDE (__data_start, .)
 *(.data)
 *(.data*)
 .data.usbMsgLen
                0x00800100        0x2 avr\lib\vusb-20121206\usbdrv\usbdrv.o
 .data.usbTxLen
                0x00800102        0x1 avr\lib\vusb-20121206\usbdrv\usbdrv.o
                0x00800102                usbTxLen
 .data._ZN12Hpma115s0Fsm7Machine37m_ReadParticleMeasurementResultsStateE
                0x00800103        0x2 avr\src\Hpma115s0\Fsm.o
                0x00800103                _ZN12Hpma115s0Fsm7Machine37m_ReadParticleMeasurementResultsStateE
 .data._ZN12Hpma115s0Fsm7Machine20m_SensorEnabledStateE
                0x00800105        0x2 avr\src\Hpma115s0\Fsm.o
                0x00800105                _ZN12Hpma115s0Fsm7Machine20m_SensorEnabledStateE
 .data._ZN12Hpma115s0Fsm7Machine26m_SensorStabilizationStateE
                0x00800107        0x2 avr\src\Hpma115s0\Fsm.o
                0x00800107                _ZN12Hpma115s0Fsm7Machine26m_SensorStabilizationStateE
 .data._ZN12Hpma115s0Fsm7Machine31m_StartParticleMeasurementStateE
                0x00800109        0x2 avr\src\Hpma115s0\Fsm.o
                0x00800109                _ZN12Hpma115s0Fsm7Machine31m_StartParticleMeasurementStateE
 .data._ZN12Hpma115s0Fsm7Machine21m_SensorDisabledStateE
                0x0080010b        0x2 avr\src\Hpma115s0\Fsm.o
                0x0080010b                _ZN12Hpma115s0Fsm7Machine21m_SensorDisabledStateE
 .data._ZN12Hpma115s0Fsm7Machine30m_StopParticleMeasurementStateE
                0x0080010d        0x2 avr\src\Hpma115s0\Fsm.o
                0x0080010d                _ZN12Hpma115s0Fsm7Machine30m_StopParticleMeasurementStateE
 .data._ZN12Hpma115s0Fsm7Machine22m_DisableAutoSendStateE
                0x0080010f        0x2 avr\src\Hpma115s0\Fsm.o
                0x0080010f                _ZN12Hpma115s0Fsm7Machine22m_DisableAutoSendStateE
 .data._ZN12Hpma115s0Fsm7Machine21m_InitializationStateE
                0x00800111        0x2 avr\src\Hpma115s0\Fsm.o
                0x00800111                _ZN12Hpma115s0Fsm7Machine21m_InitializationStateE
 *(.gnu.linkonce.d*)
 *(.rodata)
 *(.rodata*)
 .rodata._ZTVN12Hpma115s0Fsm19InitializationStateE
                0x00800113        0xc avr\src\Hpma115s0\Fsm.o
                0x00800113                _ZTVN12Hpma115s0Fsm19InitializationStateE
 .rodata._ZTVN12Hpma115s0Fsm20DisableAutoSendStateE
                0x0080011f        0xc avr\src\Hpma115s0\Fsm.o
                0x0080011f                _ZTVN12Hpma115s0Fsm20DisableAutoSendStateE
 .rodata._ZTVN12Hpma115s0Fsm28StopParticleMeasurementStateE
                0x0080012b        0xc avr\src\Hpma115s0\Fsm.o
                0x0080012b                _ZTVN12Hpma115s0Fsm28StopParticleMeasurementStateE
 .rodata._ZTVN12Hpma115s0Fsm19SensorDisabledStateE
                0x00800137        0xc avr\src\Hpma115s0\Fsm.o
                0x00800137                _ZTVN12Hpma115s0Fsm19SensorDisabledStateE
 .rodata._ZTVN12Hpma115s0Fsm29StartParticleMeasurementStateE
                0x00800143        0xc avr\src\Hpma115s0\Fsm.o
                0x00800143                _ZTVN12Hpma115s0Fsm29StartParticleMeasurementStateE
 .rodata._ZTVN12Hpma115s0Fsm24SensorStabilizationStateE
                0x0080014f        0xc avr\src\Hpma115s0\Fsm.o
                0x0080014f                _ZTVN12Hpma115s0Fsm24SensorStabilizationStateE
 .rodata._ZTVN12Hpma115s0Fsm18SensorEnabledStateE
                0x0080015b        0xc avr\src\Hpma115s0\Fsm.o
                0x0080015b                _ZTVN12Hpma115s0Fsm18SensorEnabledStateE
 .rodata._ZTVN12Hpma115s0Fsm35ReadParticleMeasurementResultsStateE
                0x00800167        0xc avr\src\Hpma115s0\Fsm.o
                0x00800167                _ZTVN12Hpma115s0Fsm35ReadParticleMeasurementResultsStateE
 .rodata._ZN17Hpma115s0ProtocolL21REQ_DISABLE_AUTO_SENDE
                0x00800173        0x4 avr\src\Hpma115s0\Fsm.o
 .rodata._ZN17Hpma115s0ProtocolL37REQ_READ_PARTICLE_MEASUREMENT_RESULTSE
                0x00800177        0x4 avr\src\Hpma115s0\Fsm.o
 .rodata._ZN17Hpma115s0ProtocolL29REQ_STOP_PARTICLE_MEASUREMENTE
                0x0080017b        0x4 avr\src\Hpma115s0\Fsm.o
 .rodata._ZN17Hpma115s0ProtocolL30REQ_START_PARTICLE_MEASUREMENTE
                0x0080017f        0x4 avr\src\Hpma115s0\Fsm.o
 .rodata._ZTVN3Usb3Hid8InReportINS0_6Sensor15InputReportDataIjEEEE
                0x00800183        0xc avr\src\main.o
                0x00800183                _ZTVN3Usb3Hid8InReportINS0_6Sensor15InputReportDataIjEEEE
 .rodata._ZTVN3Usb3Hid8InReportINS0_6Sensor17FeatureReportDataINS2_27SingleValueCustomPropertiesIjEEEEEE
                0x0080018f        0xc avr\src\main.o
                0x0080018f                _ZTVN3Usb3Hid8InReportINS0_6Sensor17FeatureReportDataINS2_27SingleValueCustomPropertiesIjEEEEEE
 .rodata._ZTVN3Usb3Hid9OutReportINS0_6Sensor17FeatureReportDataINS2_27SingleValueCustomPropertiesIjEEEEEE
                0x0080019b        0xc avr\src\main.o
                0x0080019b                _ZTVN3Usb3Hid9OutReportINS0_6Sensor17FeatureReportDataINS2_27SingleValueCustomPropertiesIjEEEEEE
 .rodata._ZTVN3Usb3Hid6Sensor13GenericSensorIjNS1_27SingleValueCustomPropertiesIjEEEE
                0x008001a7       0x10 avr\src\main.o
                0x008001a7                _ZTVN3Usb3Hid6Sensor13GenericSensorIjNS1_27SingleValueCustomPropertiesIjEEEE
 .rodata._ZTVN3Usb3Hid6Sensor11SingleValueIjEE
                0x008001b7       0x10 avr\src\main.o
                0x008001b7                _ZTVN3Usb3Hid6Sensor11SingleValueIjEE
 .rodata._ZTVN3Usb3Hid9OutReportINS0_9RtcUpdate16OutputReportDataEEE
                0x008001c7        0xc avr\src\main.o
                0x008001c7                _ZTVN3Usb3Hid9OutReportINS0_9RtcUpdate16OutputReportDataEEE
 .rodata._ZTVN3Usb3Hid8ConsumerINS0_9RtcUpdate16OutputReportDataEEE
                0x008001d3        0xe avr\src\main.o
                0x008001d3                _ZTVN3Usb3Hid8ConsumerINS0_9RtcUpdate16OutputReportDataEEE
 .rodata._ZTVN3Usb3Hid10CollectionE
                0x008001e1       0x12 avr\src\main.o
                0x008001e1                _ZTVN3Usb3Hid10CollectionE
 .rodata._ZTVN3Usb3Hid9RtcUpdate9PerformerE
                0x008001f3        0xa avr\src\main.o
                0x008001f3                _ZTVN3Usb3Hid9RtcUpdate9PerformerE
 *(.gnu.linkonce.r*)
                0x008001fe                . = ALIGN (0x2)
 *fill*         0x008001fd        0x1 
                0x008001fe                _edata = .
                0x008001fe                PROVIDE (__data_end, .)

.bss            0x008001fe       0xce
                0x008001fe                PROVIDE (__bss_start, .)
 *(.bss)
 *(.bss*)
 .bss.usbMsgFlags
                0x008001fe        0x1 avr\lib\vusb-20121206\usbdrv\usbdrv.o
 .bss._ZN13AnalogSensors20m_BacklightDutyCycleE
                0x008001ff        0x1 avr\src\AnalogSensors.o
                0x008001ff                _ZN13AnalogSensors20m_BacklightDutyCycleE
 .bss._ZN13AnalogSensors30m_IsBacklightDutyCycleOutdatedE
                0x00800200        0x1 avr\src\AnalogSensors.o
                0x00800200                _ZN13AnalogSensors30m_IsBacklightDutyCycleOutdatedE
 .bss._ZN13AnalogSensors12m_AdcSamplesE
                0x00800201       0x24 avr\src\AnalogSensors.o
                0x00800201                _ZN13AnalogSensors12m_AdcSamplesE
 .bss._ZN6Bme28018m_RelativeHumidityE
                0x00800225        0x2 avr\src\Bme280.o
                0x00800225                _ZN6Bme28018m_RelativeHumidityE
 .bss._ZN6Bme28013m_TemperatureE
                0x00800227        0x2 avr\src\Bme280.o
                0x00800227                _ZN6Bme28013m_TemperatureE
 .bss._ZN6Bme28021m_AtmosphericPressureE
                0x00800229        0x4 avr\src\Bme280.o
                0x00800229                _ZN6Bme28021m_AtmosphericPressureE
 .bss._ZN6Bme28017m_CalibrationDataE
                0x0080022d       0x25 avr\src\Bme280.o
                0x0080022d                _ZN6Bme28017m_CalibrationDataE
 .bss._ZN6Bme28011m_PollTimerE
                0x00800252        0x4 avr\src\Bme280.o
                0x00800252                _ZN6Bme28011m_PollTimerE
 .bss._ZN7Display26m_IsTimeDateBlankingActiveE
                0x00800256        0x1 avr\src\Display.o
                0x00800256                _ZN7Display26m_IsTimeDateBlankingActiveE
 .bss._ZN7Display13m_UpdateTimerE
                0x00800257        0x4 avr\src\Display.o
                0x00800257                _ZN7Display13m_UpdateTimerE
 .bss._ZN12Hpma115s0Fsm7Machine7m_Pm2p5E
                0x0080025b        0x2 avr\src\Hpma115s0\Fsm.o
                0x0080025b                _ZN12Hpma115s0Fsm7Machine7m_Pm2p5E
 .bss._ZN12Hpma115s0Fsm7Machine9m_EnabledE
                0x0080025d        0x1 avr\src\Hpma115s0\Fsm.o
                0x0080025d                _ZN12Hpma115s0Fsm7Machine9m_EnabledE
 .bss._ZN12Hpma115s0Fsm7Machine15m_pCurrentStateE
                0x0080025e        0x2 avr\src\Hpma115s0\Fsm.o
                0x0080025e                _ZN12Hpma115s0Fsm7Machine15m_pCurrentStateE
 .bss._ZN13SharedHelpers4Uart15m_ResponseTimerE
                0x00800260        0x3 avr\src\Hpma115s0\Fsm.o
                0x00800260                _ZN13SharedHelpers4Uart15m_ResponseTimerE
 .bss._ZN13SharedHelpers4Uart14m_ResponseSizeE
                0x00800263        0x1 avr\src\Hpma115s0\Fsm.o
                0x00800263                _ZN13SharedHelpers4Uart14m_ResponseSizeE
 .bss._ZN13SharedHelpers4Uart16m_ResponseBufferE
                0x00800264        0x8 avr\src\Hpma115s0\Fsm.o
                0x00800264                _ZN13SharedHelpers4Uart16m_ResponseBufferE
 .bss._ZN13SharedHelpersL14f_OneshotTimerE
                0x0080026c        0x5 avr\src\Hpma115s0\Fsm.o
 .bss._ZN10PushButton12m_WasPressedE
                0x00800271        0x1 avr\src\PushButton.o
                0x00800271                _ZN10PushButton12m_WasPressedE
 .bss._ZN10PushButton11m_IsPressedE
                0x00800272        0x1 avr\src\PushButton.o
                0x00800272                _ZN10PushButton11m_IsPressedE
 .bss._ZN10PushButton15m_PreviousStateE
                0x00800273        0x1 avr\src\PushButton.o
                0x00800273                _ZN10PushButton15m_PreviousStateE
 .bss._ZN10PushButton17m_DebouncingTimerE
                0x00800274        0x5 avr\src\PushButton.o
                0x00800274                _ZN10PushButton17m_DebouncingTimerE
 .bss._ZN3Rtc15m_IsSetRequiredE
                0x00800279        0x1 avr\src\Rtc.o
                0x00800279                _ZN3Rtc15m_IsSetRequiredE
 .bss._ZN3Rtc6m_DateE
                0x0080027a        0x4 avr\src\Rtc.o
                0x0080027a                _ZN3Rtc6m_DateE
 .bss._ZN3Rtc6m_TimeE
                0x0080027e        0x3 avr\src\Rtc.o
                0x0080027e                _ZN3Rtc6m_TimeE
 .bss._ZN3Rtc11m_PollTimerE
                0x00800281        0x4 avr\src\Rtc.o
                0x00800281                _ZN3Rtc11m_PollTimerE
 .bss._ZN11SystemTimer15m_TimestampInMsE
                0x00800285        0x2 avr\src\Tc\SystemTimer.o
                0x00800285                _ZN11SystemTimer15m_TimestampInMsE
 .bss._ZN6Usart014m_LastRxErrorsE
                0x00800287        0x1 avr\src\Usart0.o
                0x00800287                _ZN6Usart014m_LastRxErrorsE
 .bss._ZN3Usb3Hid9ControlEp11m_BytesLeftE
                0x00800288        0x2 avr\src\Usb\Hid\ControlEp.o
                0x00800288                _ZN3Usb3Hid9ControlEp11m_BytesLeftE
 .bss._ZN3Usb3Hid9ControlEp14m_pCurrentByteE
                0x0080028a        0x2 avr\src\Usb\Hid\ControlEp.o
                0x0080028a                _ZN3Usb3Hid9ControlEp14m_pCurrentByteE
 .bss._ZN3Usb3Hid9ControlEp11m_IsStalledE
                0x0080028c        0x1 avr\src\Usb\Hid\ControlEp.o
                0x0080028c                _ZN3Usb3Hid9ControlEp11m_IsStalledE
 .bss._ZN3Usb3Hid9ControlEp9m_pReportE
                0x0080028d        0x2 avr\src\Usb\Hid\ControlEp.o
                0x0080028d                _ZN3Usb3Hid9ControlEp9m_pReportE
 .bss._ZN3Usb3Hid9ControlEp14m_InBufferSizeE
                0x0080028f        0x2 avr\src\Usb\Hid\ControlEp.o
                0x0080028f                _ZN3Usb3Hid9ControlEp14m_InBufferSizeE
 .bss._ZN3Usb3Hid9ControlEp11m_pInBufferE
                0x00800291        0x2 avr\src\Usb\Hid\ControlEp.o
                0x00800291                _ZN3Usb3Hid9ControlEp11m_pInBufferE
 .bss._ZN3Usb3Hid9ControlEp9m_pDeviceE
                0x00800293        0x2 avr\src\Usb\Hid\ControlEp.o
                0x00800293                _ZN3Usb3Hid9ControlEp9m_pDeviceE
 .bss._ZZ21g_HandleAssertFailureE20isAssertBeingHandled
                0x00800295        0x1 avr\src\assertHandler.o
 *(COMMON)
 COMMON         0x00800296       0x36 avr\lib\vusb-20121206\usbdrv\usbdrv.o
                0x00800296                usbTxBuf
                0x008002a1                usbTxStatus1
                0x008002ad                usbDeviceAddr
                0x008002ae                usbRxToken
                0x008002af                usbInputBufOffset
                0x008002b0                usbMsgPtr
                0x008002b2                usbRxLen
                0x008002b3                usbNewDeviceAddr
                0x008002b4                usbCurrentTok
                0x008002b5                usbConfiguration
                0x008002b6                usbRxBuf
                0x008002cc                PROVIDE (__bss_end, .)
                0x00003d84                __data_load_start = LOADADDR (.data)
                0x00003e82                __data_load_end = (__data_load_start + SIZEOF (.data))

.noinit         0x008002cc        0x0
                [!provide]                PROVIDE (__noinit_start, .)
 *(.noinit*)
                [!provide]                PROVIDE (__noinit_end, .)
                0x008002cc                _end = .
                [!provide]                PROVIDE (__heap_start, .)

.eeprom         0x00810000        0x1
 *(.eeprom*)
 .eeprom        0x00810000        0x1 avr\src\Sensors.o
                0x00810000                _ZN7Sensors26m_Hpma115s0StateAtPowerOnEE
                0x00810001                __eeprom_end = .

.fuse           0x00820000        0x3
 *(.fuse)
 .fuse          0x00820000        0x3 avr\src\fuses.o
                0x00820000                __fuse
 *(.lfuse)
 *(.hfuse)
 *(.efuse)

.lock           0x00830000        0x1
 *(.lock*)
 .lock          0x00830000        0x1 avr\src\fuses.o
                0x00830000                __lock

.signature
 *(.signature*)

.user_signatures
 *(.user_signatures*)

.stab
 *(.stab)

.stabstr
 *(.stabstr)

.stab.excl
 *(.stab.excl)

.stab.exclstr
 *(.stab.exclstr)

.stab.index
 *(.stab.index)

.stab.indexstr
 *(.stab.indexstr)

.comment        0x00000000       0x30
 *(.comment)
 .comment       0x00000000       0x30 avr\lib\BME280_driver\bme280.o
                                 0x31 (size before relaxing)
 .comment       0x00000030       0x31 avr\lib\stackmon.o
 .comment       0x00000030       0x31 avr\lib\vusb-20121206\usbdrv\usbdrv.o
 .comment       0x00000030       0x31 avr\src\AnalogSensors.o
 .comment       0x00000030       0x31 avr\src\Bme280.o
 .comment       0x00000030       0x31 avr\src\Display.o
 .comment       0x00000030       0x31 avr\src\Hpma115s0\Fsm.o
 .comment       0x00000030       0x31 avr\src\Mcu.o
 .comment       0x00000030       0x31 avr\src\PushButton.o
 .comment       0x00000030       0x31 avr\src\Rtc.o
 .comment       0x00000030       0x31 avr\src\Sensors.o
 .comment       0x00000030       0x31 avr\src\Tc\SystemTimer.o
 .comment       0x00000030       0x31 avr\src\Usart0.o
 .comment       0x00000030       0x31 avr\src\Usb\Hid\ControlEp.o
 .comment       0x00000030       0x31 avr\src\Usb\descriptors.o
 .comment       0x00000030       0x31 avr\src\abi.o
 .comment       0x00000030       0x31 avr\src\assertHandler.o
 .comment       0x00000030       0x31 avr\src\badIsrHandler.o
 .comment       0x00000030       0x31 avr\src\fuses.o
 .comment       0x00000030       0x31 avr\src\lcd-hd44780.o
 .comment       0x00000030       0x31 avr\src\main.o

.note.gnu.avr.deviceinfo
                0x00000000       0x40
 .note.gnu.avr.deviceinfo
                0x00000000       0x40 d:/dev/avr/tools/avr8-gnu-toolchain-3.6.2.1759-win32.any.x86/avr8-gnu-toolchain-win32_x86/bin/../lib/gcc/avr/5.4.0/../../../../avr/lib/avr5/crtatmega168pa.o

.note.gnu.build-id
 *(.note.gnu.build-id)

.debug
 *(.debug)

.line
 *(.line)

.debug_srcinfo
 *(.debug_srcinfo)

.debug_sfnames
 *(.debug_sfnames)

.debug_aranges  0x00000000      0x730
 *(.debug_aranges)
 .debug_aranges
                0x00000000       0xb0 avr\lib\BME280_driver\bme280.o
 .debug_aranges
                0x000000b0       0x28 avr\lib\stackmon.o
 .debug_aranges
                0x000000d8       0x30 avr\lib\vusb-20121206\usbdrv\usbdrv.o
 .debug_aranges
                0x00000108       0x18 avr\src\AnalogSensors.o
 .debug_aranges
                0x00000120       0x18 avr\src\Bme280.o
 .debug_aranges
                0x00000138       0x18 avr\src\Display.o
 .debug_aranges
                0x00000150      0x148 avr\src\Hpma115s0\Fsm.o
 .debug_aranges
                0x00000298       0x30 avr\src\Mcu.o
 .debug_aranges
                0x000002c8       0x18 avr\src\PushButton.o
 .debug_aranges
                0x000002e0       0x18 avr\src\Rtc.o
 .debug_aranges
                0x000002f8       0x40 avr\src\Sensors.o
 .debug_aranges
                0x00000338       0x18 avr\src\Tc\SystemTimer.o
 .debug_aranges
                0x00000350       0x18 avr\src\Usart0.o
 .debug_aranges
                0x00000368       0x38 avr\src\Usb\Hid\ControlEp.o
 .debug_aranges
                0x000003a0       0x20 avr\src\Usb\descriptors.o
 .debug_aranges
                0x000003c0       0x38 avr\src\abi.o
 .debug_aranges
                0x000003f8       0x30 avr\src\assertHandler.o
 .debug_aranges
                0x00000428       0x28 avr\src\badIsrHandler.o
 .debug_aranges
                0x00000450       0x18 avr\src\fuses.o
 .debug_aranges
                0x00000468       0x68 avr\src\lcd-hd44780.o
 .debug_aranges
                0x000004d0      0x260 avr\src\main.o

.debug_pubnames
 *(.debug_pubnames)

.debug_info     0x00000000    0x1f3e9
 *(.debug_info .gnu.linkonce.wi.*)
 .debug_info    0x00000000      0x5f4 d:/dev/avr/tools/avr8-gnu-toolchain-3.6.2.1759-win32.any.x86/avr8-gnu-toolchain-win32_x86/bin/../lib/gcc/avr/5.4.0/../../../../avr/lib/avr5/crtatmega168pa.o
 .debug_info    0x000005f4     0x1c96 avr\lib\BME280_driver\bme280.o
 .debug_info    0x0000228a       0xf0 avr\lib\stackmon.o
 .debug_info    0x0000237a      0x99a avr\lib\vusb-20121206\usbdrv\usbdrv.o
 .debug_info    0x00002d14      0x6be avr\src\AnalogSensors.o
 .debug_info    0x000033d2      0xaa1 avr\src\Bme280.o
 .debug_info    0x00003e73     0x20ab avr\src\Display.o
 .debug_info    0x00005f1e     0x34a1 avr\src\Hpma115s0\Fsm.o
 .debug_info    0x000093bf      0x3e0 avr\src\Mcu.o
 .debug_info    0x0000979f      0x34a avr\src\PushButton.o
 .debug_info    0x00009ae9      0x64c avr\src\Rtc.o
 .debug_info    0x0000a135     0x2d11 avr\src\Sensors.o
 .debug_info    0x0000ce46      0x250 avr\src\Tc\SystemTimer.o
 .debug_info    0x0000d096      0x384 avr\src\Usart0.o
 .debug_info    0x0000d41a      0x87f avr\src\Usb\Hid\ControlEp.o
 .debug_info    0x0000dc99      0x45c avr\src\Usb\descriptors.o
 .debug_info    0x0000e0f5      0x1c6 avr\src\abi.o
 .debug_info    0x0000e2bb     0x3269 avr\src\assertHandler.o
 .debug_info    0x00011524      0x37b avr\src\badIsrHandler.o
 .debug_info    0x0001189f       0xcd avr\src\fuses.o
 .debug_info    0x0001196c      0x685 avr\src\lcd-hd44780.o
 .debug_info    0x00011ff1     0xd3f8 avr\src\main.o

.debug_abbrev   0x00000000     0x4e82
 *(.debug_abbrev)
 .debug_abbrev  0x00000000      0x5a2 d:/dev/avr/tools/avr8-gnu-toolchain-3.6.2.1759-win32.any.x86/avr8-gnu-toolchain-win32_x86/bin/../lib/gcc/avr/5.4.0/../../../../avr/lib/avr5/crtatmega168pa.o
 .debug_abbrev  0x000005a2      0x2ce avr\lib\BME280_driver\bme280.o
 .debug_abbrev  0x00000870       0xa0 avr\lib\stackmon.o
 .debug_abbrev  0x00000910      0x30a avr\lib\vusb-20121206\usbdrv\usbdrv.o
 .debug_abbrev  0x00000c1a      0x306 avr\src\AnalogSensors.o
 .debug_abbrev  0x00000f20      0x2e2 avr\src\Bme280.o
 .debug_abbrev  0x00001202      0x56c avr\src\Display.o
 .debug_abbrev  0x0000176e      0x733 avr\src\Hpma115s0\Fsm.o
 .debug_abbrev  0x00001ea1      0x256 avr\src\Mcu.o
 .debug_abbrev  0x000020f7      0x179 avr\src\PushButton.o
 .debug_abbrev  0x00002270      0x226 avr\src\Rtc.o
 .debug_abbrev  0x00002496      0x76b avr\src\Sensors.o
 .debug_abbrev  0x00002c01      0x14d avr\src\Tc\SystemTimer.o
 .debug_abbrev  0x00002d4e      0x193 avr\src\Usart0.o
 .debug_abbrev  0x00002ee1      0x37f avr\src\Usb\Hid\ControlEp.o
 .debug_abbrev  0x00003260      0x13e avr\src\Usb\descriptors.o
 .debug_abbrev  0x0000339e      0x121 avr\src\abi.o
 .debug_abbrev  0x000034bf      0x838 avr\src\assertHandler.o
 .debug_abbrev  0x00003cf7      0x226 avr\src\badIsrHandler.o
 .debug_abbrev  0x00003f1d       0x79 avr\src\fuses.o
 .debug_abbrev  0x00003f96      0x23e avr\src\lcd-hd44780.o
 .debug_abbrev  0x000041d4      0xcae avr\src\main.o

.debug_line     0x00000000     0x84fa
 *(.debug_line .debug_line.* .debug_line_end)
 .debug_line    0x00000000       0x1a d:/dev/avr/tools/avr8-gnu-toolchain-3.6.2.1759-win32.any.x86/avr8-gnu-toolchain-win32_x86/bin/../lib/gcc/avr/5.4.0/../../../../avr/lib/avr5/crtatmega168pa.o
 .debug_line    0x0000001a      0x8f9 avr\lib\BME280_driver\bme280.o
 .debug_line    0x00000913      0x188 avr\lib\stackmon.o
 .debug_line    0x00000a9b      0x545 avr\lib\vusb-20121206\usbdrv\usbdrv.o
 .debug_line    0x00000fe0      0x43f avr\src\AnalogSensors.o
 .debug_line    0x0000141f      0x3d9 avr\src\Bme280.o
 .debug_line    0x000017f8      0x6d0 avr\src\Display.o
 .debug_line    0x00001ec8      0xae5 avr\src\Hpma115s0\Fsm.o
 .debug_line    0x000029ad      0x308 avr\src\Mcu.o
 .debug_line    0x00002cb5      0x320 avr\src\PushButton.o
 .debug_line    0x00002fd5      0x3f3 avr\src\Rtc.o
 .debug_line    0x000033c8      0x8d4 avr\src\Sensors.o
 .debug_line    0x00003c9c      0x29f avr\src\Tc\SystemTimer.o
 .debug_line    0x00003f3b      0x25a avr\src\Usart0.o
 .debug_line    0x00004195      0x53b avr\src\Usb\Hid\ControlEp.o
 .debug_line    0x000046d0      0x350 avr\src\Usb\descriptors.o
 .debug_line    0x00004a20      0x295 avr\src\abi.o
 .debug_line    0x00004cb5      0x969 avr\src\assertHandler.o
 .debug_line    0x0000561e      0x2cd avr\src\badIsrHandler.o
 .debug_line    0x000058eb      0x237 avr\src\fuses.o
 .debug_line    0x00005b22      0x6b2 avr\src\lcd-hd44780.o
 .debug_line    0x000061d4     0x2326 avr\src\main.o

.debug_frame    0x00000000     0x127c
 *(.debug_frame)
 .debug_frame   0x00000000      0x3b0 avr\lib\BME280_driver\bme280.o
 .debug_frame   0x000003b0       0x34 avr\lib\stackmon.o
 .debug_frame   0x000003e4       0x58 avr\lib\vusb-20121206\usbdrv\usbdrv.o
 .debug_frame   0x0000043c      0x294 avr\src\Hpma115s0\Fsm.o
 .debug_frame   0x000006d0       0x44 avr\src\Mcu.o
 .debug_frame   0x00000714       0xa8 avr\src\Sensors.o
 .debug_frame   0x000007bc       0x9c avr\src\Usb\Hid\ControlEp.o
 .debug_frame   0x00000858       0x24 avr\src\Usb\descriptors.o
 .debug_frame   0x0000087c       0x54 avr\src\abi.o
 .debug_frame   0x000008d0       0x98 avr\src\assertHandler.o
 .debug_frame   0x00000968       0x34 avr\src\badIsrHandler.o
 .debug_frame   0x0000099c       0xfc avr\src\lcd-hd44780.o
 .debug_frame   0x00000a98      0x7e4 avr\src\main.o

.debug_str      0x00000000    0x24b63
 *(.debug_str)
 .debug_str     0x00000000      0x208 d:/dev/avr/tools/avr8-gnu-toolchain-3.6.2.1759-win32.any.x86/avr8-gnu-toolchain-win32_x86/bin/../lib/gcc/avr/5.4.0/../../../../avr/lib/avr5/crtatmega168pa.o
 .debug_str     0x00000208     0x46bf avr\lib\BME280_driver\bme280.o
                               0x485e (size before relaxing)
 .debug_str     0x000048c7       0x5a avr\lib\stackmon.o
                               0x32b2 (size before relaxing)
 .debug_str     0x00004921     0x5a7d avr\lib\vusb-20121206\usbdrv\usbdrv.o
                               0x8e4b (size before relaxing)
 .debug_str     0x0000a39e     0x1324 avr\src\AnalogSensors.o
                               0x88a7 (size before relaxing)
 .debug_str     0x0000b6c2      0xd07 avr\src\Bme280.o
                               0x98b2 (size before relaxing)
 .debug_str     0x0000c3c9     0x1e35 avr\src\Display.o
                               0xc155 (size before relaxing)
 .debug_str     0x0000e1fe     0x29a7 avr\src\Hpma115s0\Fsm.o
                               0xb65d (size before relaxing)
 .debug_str     0x00010ba5      0xa54 avr\src\Mcu.o
                               0x89eb (size before relaxing)
 .debug_str     0x000115f9      0x217 avr\src\PushButton.o
                               0x819b (size before relaxing)
 .debug_str     0x00011810      0x1a3 avr\src\Rtc.o
                               0x8904 (size before relaxing)
 .debug_str     0x000119b3      0x79f avr\src\Sensors.o
                               0xcd37 (size before relaxing)
 .debug_str     0x00012152       0x44 avr\src\Tc\SystemTimer.o
                               0x804a (size before relaxing)
 .debug_str     0x00012196       0x35 avr\src\Usart0.o
                               0x81a9 (size before relaxing)
 .debug_str     0x000121cb      0x623 avr\src\Usb\Hid\ControlEp.o
                               0x97a8 (size before relaxing)
 .debug_str     0x000127ee     0x9d36 avr\src\Usb\descriptors.o
                              0x12a3a (size before relaxing)
 .debug_str     0x0001c524       0x73 avr\src\abi.o
                               0x7ef1 (size before relaxing)
 .debug_str     0x0001c597     0x1193 avr\src\assertHandler.o
                               0xf09c (size before relaxing)
 .debug_str     0x0001d72a       0x20 avr\src\badIsrHandler.o
                               0x89c8 (size before relaxing)
 .debug_str     0x0001d74a       0x3b avr\src\fuses.o
                               0x7ac6 (size before relaxing)
 .debug_str     0x0001d785      0x246 avr\src\lcd-hd44780.o
                               0x859b (size before relaxing)
 .debug_str     0x0001d9cb     0x7198 avr\src\main.o
                              0x20e95 (size before relaxing)

.debug_loc      0x00000000     0x81eb
 *(.debug_loc)
 .debug_loc     0x00000000     0x24b6 avr\lib\BME280_driver\bme280.o
 .debug_loc     0x000024b6       0x4c avr\lib\stackmon.o
 .debug_loc     0x00002502      0x79e avr\lib\vusb-20121206\usbdrv\usbdrv.o
 .debug_loc     0x00002ca0      0x8fe avr\src\Hpma115s0\Fsm.o
 .debug_loc     0x0000359e       0x3f avr\src\Mcu.o
 .debug_loc     0x000035dd      0x220 avr\src\Sensors.o
 .debug_loc     0x000037fd      0x5b3 avr\src\Usb\Hid\ControlEp.o
 .debug_loc     0x00003db0       0x98 avr\src\Usb\descriptors.o
 .debug_loc     0x00003e48       0x50 avr\src\abi.o
 .debug_loc     0x00003e98      0x6ca avr\src\assertHandler.o
 .debug_loc     0x00004562      0x5cf avr\src\lcd-hd44780.o
 .debug_loc     0x00004b31     0x36ba avr\src\main.o

.debug_macinfo
 *(.debug_macinfo)

.debug_weaknames
 *(.debug_weaknames)

.debug_funcnames
 *(.debug_funcnames)

.debug_typenames
 *(.debug_typenames)

.debug_varnames
 *(.debug_varnames)

.debug_pubtypes
 *(.debug_pubtypes)

.debug_ranges   0x00000000      0x8d0
 *(.debug_ranges)
 .debug_ranges  0x00000000       0xb8 avr\lib\BME280_driver\bme280.o
 .debug_ranges  0x000000b8       0x18 avr\lib\stackmon.o
 .debug_ranges  0x000000d0       0x88 avr\lib\vusb-20121206\usbdrv\usbdrv.o
 .debug_ranges  0x00000158      0x220 avr\src\Hpma115s0\Fsm.o
 .debug_ranges  0x00000378       0x20 avr\src\Mcu.o
 .debug_ranges  0x00000398       0x30 avr\src\Sensors.o
 .debug_ranges  0x000003c8       0x40 avr\src\Usb\Hid\ControlEp.o
 .debug_ranges  0x00000408       0x10 avr\src\Usb\descriptors.o
 .debug_ranges  0x00000418       0x28 avr\src\abi.o
 .debug_ranges  0x00000440       0x38 avr\src\assertHandler.o
 .debug_ranges  0x00000478       0x18 avr\src\badIsrHandler.o
 .debug_ranges  0x00000490       0x58 avr\src\lcd-hd44780.o
 .debug_ranges  0x000004e8      0x3e8 avr\src\main.o

.debug_macro    0x00000000     0x5c7e
 *(.debug_macro)
 .debug_macro   0x00000000       0x52 avr\lib\BME280_driver\bme280.o
 .debug_macro   0x00000052      0xa54 avr\lib\BME280_driver\bme280.o
 .debug_macro   0x00000aa6      0x1c9 avr\lib\BME280_driver\bme280.o
 .debug_macro   0x00000c6f      0x174 avr\lib\BME280_driver\bme280.o
 .debug_macro   0x00000de3      0x22d avr\lib\BME280_driver\bme280.o
 .debug_macro   0x00001010       0x34 avr\lib\stackmon.o
 .debug_macro   0x00001044      0x149 avr\lib\vusb-20121206\usbdrv\usbdrv.o
 .debug_macro   0x0000118d      0x143 avr\lib\vusb-20121206\usbdrv\usbdrv.o
 .debug_macro   0x000012d0      0x295 avr\lib\vusb-20121206\usbdrv\usbdrv.o
 .debug_macro   0x00001565       0x22 avr\lib\vusb-20121206\usbdrv\usbdrv.o
 .debug_macro   0x00001587       0xfc avr\src\AnalogSensors.o
 .debug_macro   0x00001683      0xb02 avr\src\AnalogSensors.o
 .debug_macro   0x00002185       0xc4 avr\src\AnalogSensors.o
 .debug_macro   0x00002249      0x17b avr\src\AnalogSensors.o
 .debug_macro   0x000023c4       0x1c avr\src\AnalogSensors.o
 .debug_macro   0x000023e0       0x7c avr\src\AnalogSensors.o
 .debug_macro   0x0000245c      0x302 avr\src\AnalogSensors.o
 .debug_macro   0x0000275e       0x35 avr\src\AnalogSensors.o
 .debug_macro   0x00002793       0xaa avr\src\AnalogSensors.o
 .debug_macro   0x0000283d       0x1c avr\src\AnalogSensors.o
 .debug_macro   0x00002859      0x10a avr\src\Bme280.o
 .debug_macro   0x00002963       0x68 avr\src\Bme280.o
 .debug_macro   0x000029cb       0xdd avr\src\Bme280.o
 .debug_macro   0x00002aa8      0x1f0 avr\src\Display.o
 .debug_macro   0x00002c98      0x104 avr\src\Display.o
 .debug_macro   0x00002d9c       0x1c avr\src\Display.o
 .debug_macro   0x00002db8       0x5a avr\src\Display.o
 .debug_macro   0x00002e12       0x10 avr\src\Display.o
 .debug_macro   0x00002e22      0x160 avr\src\Display.o
 .debug_macro   0x00002f82       0x16 avr\src\Display.o
 .debug_macro   0x00002f98       0x76 avr\src\Display.o
 .debug_macro   0x0000300e       0xa6 avr\src\Display.o
 .debug_macro   0x000030b4       0x33 avr\src\Display.o
 .debug_macro   0x000030e7       0xfc avr\src\Hpma115s0\Fsm.o
 .debug_macro   0x000031e3       0xe9 avr\src\Mcu.o
 .debug_macro   0x000032cc       0x63 avr\src\Mcu.o
 .debug_macro   0x0000332f       0x81 avr\src\Mcu.o
 .debug_macro   0x000033b0       0xdc avr\src\PushButton.o
 .debug_macro   0x0000348c      0x114 avr\src\Rtc.o
 .debug_macro   0x000035a0      0x1f5 avr\src\Sensors.o
 .debug_macro   0x00003795       0x39 avr\src\Sensors.o
 .debug_macro   0x000037ce       0xe8 avr\src\Sensors.o
 .debug_macro   0x000038b6       0xca avr\src\Tc\SystemTimer.o
 .debug_macro   0x00003980       0xc2 avr\src\Usart0.o
 .debug_macro   0x00003a42       0xff avr\src\Usb\Hid\ControlEp.o
 .debug_macro   0x00003b41       0x16 avr\src\Usb\Hid\ControlEp.o
 .debug_macro   0x00003b57       0x97 avr\src\Usb\Hid\ControlEp.o
 .debug_macro   0x00003bee       0x16 avr\src\Usb\Hid\ControlEp.o
 .debug_macro   0x00003c04       0xe2 avr\src\Usb\Hid\ControlEp.o
 .debug_macro   0x00003ce6       0x2d avr\src\Usb\Hid\ControlEp.o
 .debug_macro   0x00003d13       0xf4 avr\src\Usb\descriptors.o
 .debug_macro   0x00003e07       0x82 avr\src\Usb\descriptors.o
 .debug_macro   0x00003e89       0xfd avr\src\Usb\descriptors.o
 .debug_macro   0x00003f86     0x1270 avr\src\Usb\descriptors.o
 .debug_macro   0x000051f6       0xb3 avr\src\abi.o
 .debug_macro   0x000052a9      0x236 avr\src\assertHandler.o
 .debug_macro   0x000054df       0xdf avr\src\badIsrHandler.o
 .debug_macro   0x000055be       0xb5 avr\src\fuses.o
 .debug_macro   0x00005673       0x35 avr\src\fuses.o
 .debug_macro   0x000056a8      0x138 avr\src\lcd-hd44780.o
 .debug_macro   0x000057e0       0x22 avr\src\lcd-hd44780.o
 .debug_macro   0x00005802      0x2d1 avr\src\main.o
 .debug_macro   0x00005ad3       0x62 avr\src\main.o
 .debug_macro   0x00005b35       0x69 avr\src\main.o
 .debug_macro   0x00005b9e       0x2e avr\src\main.o
 .debug_macro   0x00005bcc       0xb2 avr\src\main.o
OUTPUT(CASH-AVR.elf elf32-avr)
LOAD linker stubs
